:10122400E4FEC297EF1392A3EFC313FFD2970EBE4F
:0212340008F0C0
:011236002295
:10121000C29300C29700D29300121224AF0512129B
:0412200024C293222F
:100F5A00E4FDC29300C29700D29300121224E4FF68
:100F6A00C297EDC313FD30A303430580D2970FBF89
:100F7A0008EEC29300C29700D29700C2A300D2A380
:030F8A0000AF05B0
:010F8D002241
:060D00008B1C8A1D891EF8
:100D0600E4FD7F8E1212107D807F80121210E4FCAB
:100D1600EC25E0FFC374849FFFAB1CAA1DA91E8CA3
:100D26008275830012053EFE75F00A8475F00A840A
:100D3600ADF0EDC454F0FDEE75F00A84E5F04DFD1E
:0E0D46001212100CBC03C97D807F8E021210A9
:060D54008B4C8A4D894E14
:100D5A00C2AFE4F54FE54F25E0FFC374859FFF124C
:100D6A000F5A7550008F51E550C4F854F0C8E55138
:100D7A00C4540F4875F00AA4FFE551540F2FAB4C29
:100D8A00AA4DA94E854F8275830012057D054FE550
:080D9A004FC3940340BFD2AF28
:010DA200222E
:04116C00D2A07F0589
:10117000000000000000000000000000000000AEC1
:06118000071FEE70EB22D8
:0F125D00D2A112116CC2A17F05121170C2A02282
:0C126C00C2A112116CD2A17F050211700A
:020F8E00AD07AD
:100F9000E4FCC2A07F05121170ED30E704D2A180FD
:100FA00002C2A17F05121170D2A0ED25E0FD7F05E0
:090FB0001211700CBC08DBC2A098
:010FB9002215
:10111500E4FC12116CED25E0FD30A103430501C28D
:0C112500A07F051211700CBC08E8AF059B
:01113100229B
:1010B100AB0512125D7FA0120F8E1210C3AF031287
:0210C1000F8E90
:1010C30012116CA2A1E433FDC2A07F05121170AF0F
:0110D3000517
:0110D40022F9
:10000300C2A0EF24FF92A17F0512117012116CC2DE
:08001300A0D2A17F05021170CB
:02108C00AB07B0
:10108E0012125D7F901210B812125D7F91120F8EA8
:10109E001210C3121115AD077F0112000312126C4C
:0210AE00AF058C
:0110B000221D
:10113200AB0712125D7F90120F8E1210C37F411205
:0D1142000F8E1210C3AF03120F8E0210C3E8
:100DEC008B528A5389541210B1AF561556EF601FAF
:100DFC00AB520554E554AA537002055314F912056D
:100E0C0025FF120F8E1210C37FC812117080DA12D8
:100E1C00126C7FFF1211707FFF1211707FFF121185
:060E2C00707FFF0211704F
:100E32008B578A5889591210B112125D7FA1120F75
:100E42008E1210C3AF5B155BEF6024121115AB5706
:100E52000559E559AA587002055814F9EF12056BA5
:100E6200E55B6004E4FF80027F0112000380D5028B
:020E7200126C00
:10103E007580FFE5A0541FFF4307808FA0E5A054E5
:10104E001FF5A0E4F580E5A0541FFF4307A08FA075
:06105E00E5A0541FF5A0FF
:011064002269
:100CA600E4FF538EEFC2C4D2C2D2B520B3027F0492
:100CB60020B2027F0520B1027F0620B0027F07D254
:100CC600C4C2C2D2B520B3027F0820B2027F092077
:100CD600B1027F0A20B0027F0BD2C4D2C2C2B520B5
:100CE600B3027F0C20B2027F0D20B1027F0E20B02E
:090CF600027F0F75B0FF438E1060
:010CFF0022D2
:0C0EB000017800017AFF0177000179FF52
:100BBD00E47878F690000112053E25E0FF12052538
:100BCD004FFF90000212053E25E025E04FFF9000FB
:100BDD000312053E33333354F84FFF9000041205D2
:100BED003EC454F04FFF90000512053EC43354E04F
:100BFD004FFF90000612053EC4333354C04FFF9093
:100C0D00000712053EC433333354804FFF7878F616
:100C1D00787AE66F601B7878E6FFF4F580E5A054EE
:100C2D001FFE4306808EA0E5A0541FF5A0787AA67E
:010C3D0007AF
:010C3E002293
:1011A0007580FFE5A0541FFF4307808FA0E5A05482
:0711B0001FF5A0E4787AF6B8
:0111B7002215
:100FBA007877E63009054440F6800354BFF678771F
:100FCA00E6FF78796660148F80E5A0541FFE430619
:0B0FDA00A08EA0E5A0541FF5A0A60704
:010FE50022E9
:100FE6007877E6300A054410F6800354EFF67877F2
:100FF600E6FF78796660148F80E5A0541FFE4306ED
:0B100600A08EA0E5A0541FF5A0A607D7
:0110110022BC
:101012007877E6300B054420F6800354DFF67877C4
:10102200E6FF78796660148F80E5A0541FFE4306C0
:0B103200A08EA0E5A0541FF5A0A607AB
:01103D002290
:0812780057656C636F6D6500A2
:100EBC00083E0A0A0A0A0A0A0A0A086F0000000019
:040ECC000000000022
:1010D500E548C3940A401AE4F548120CA68F49E581
:1010E500476549FF5549F546E549F45FF54B85499F
:0210F500472290
:10123700C3786CE694F418E694014006E4786BF6FC
:0312470008F62284
:01001E0022BF
:100EE900786EE66033785CE6C3940A402BE4786D4B
:100EF900F6785CF6785FE61470097BFF7A127978E8
:100F0900120671786EE6FF7E007D007B007A00791B
:090F19005F1205E3E4786EF62294
:10124A00538E7F5389F0438905E4F58AF58CC28D64
:03125A00D28C2211
:1011E600538EBF53890F758B18758DFCC28FD28EA7
:0511F600D2ABD2AF22D4
:03001B00020A7E58
:100A7E00C0E0C0F0C083C082C0D075D000C000C03E
:100A8E0001C002C003C004C005C006C007054878F7
:100A9E006C06E618700106054AE54AB40803754A65
:100AAE0000743E254AF8E6FFD39414400EEF24D48A
:100ABE00FDE434FFFC7B017A00800C743E254AF87D
:100ACE00E6FD7C00E4FBFAAF4A120DA37B007A0030
:100ADE00796F120BBD78690806E618700106FF865D
:100AEE0006BE031BBFE81878697600087600AF8C47
:100AFE00EFAD8A785DF6ED08F6758C00758A007894
:100B0E006DE6B40103785C06D007D006D005D0049C
:100B1E00D003D002D001D000D0D0D082D083D0F07C
:030B2E00D0E032E2
:03002300020C3F8D
:100C3F00C0E0C0F0C083C082C0D075D000C000C07B
:100C4F0001C002C003C004C005C006C00730982C05
:100C5F00786D7601785C7600786EE6245FF8A69959
:100C6F00786E06C298E6D3940A401176007E007F14
:100C7F000A7D007B007A00795F1205E3D007D0066A
:100C8F00D005D004D003D002D001D000D0D0D08274
:070C9F00D083D0F0D0E03259
:1011B80012103E1211CF1211E61210D51212371268
:0711C800001E120EE980F287
:0612880000007F09DFFEFB
:01128E00223D
:041186007F057E0063
:10118A00EF1FAA0670011E4A600BE4FDEDC3940C22
:05119A0050EE0D80F78E
:01119F00222D
:0210F700A90747
:1010F900E4FBC294E9139294121186D294E9C313C2
:0C110900F90BBB08ED7F057E0002118A87
:10114F00E4FBC294ECC313FCD294121288309403C4
:0C115F004304801211860BBB08E8AF04AB
:01116B002261
:10106500C20CD2947F0C7E0012118AC2947F507EEE
:101075000012118AD2947F0A7E0012118AA29492DC
:061085000C121186A20C02
:01108B002242
:100E74001210657FCC1210F77F441210F77FC87EE2
:100E84000012118A1210657FCC1210F77FBE121067
:100E9400F712114FA90712114FEFAD01FCE4120133
:0B0EA40031E4FBFA7980783D12002653
:010EAF002220
:100ED0000C08C0F9A4B0999282F88090FF88081499
:080EE00001020408102040800B
:100DA3007580FFE5A0541FFE4306E08EA0E5A05426
:100DB3001FF5A074142FF8E6F580E5A0541FFE4339
:100DC30006C08EA0E5A0541FF5A074082DF8E6F523
:100DD30080EB4A600353807FE5A0541FFE4306E087
:080DE3008EA0E5A0541FF5A04D
:010DEB0022E5
:1011CF00759850438E01538EFB75D7E675D6FF4346
:0711DF008E10D2ACD2AF224A
:081280008F993099FDC29922FB
:06128F0000007F26DFFED7
:011295002236
:1011FB00C2AFE4FED29012128FC29012128F0EBEAB
:04120B0008F2D2AF64
:01120F0022BC
:100F2200E4F5D9F5E9F5F91211FBD2DE309103307F
:100F3200DFFAC2DE20DF1CAFF9EFFEADE9EDFFAC58
:100F420006E41201317B967A43798B783C120026B3
:070F520002016AC2DF7F000B
:010F59002275
:10002600EC4D6011E8497017ED33EC3304600DE4D4
:10003600FCFFFEFD22E933E8330470F80201D61214
:1000460001A158046009E4CC248150062850090215
:1000560001E02840030201DDC0E0EB4A7044B980AC
:1000660006D0E0FB0201CCEF4E701CBD8008EBFF12
:10007600EAFEE9FD80EBE98DF0A4FEE5F002010F52
:10008600E9CDF9EAFEEBFFEF89F0A4FCE5F0CE89B5
:10009600F0A42EFFE435F0CD89F0A42DFEE435F072
:1000A6008067EF4E7005BD80D780C3EF8BF0A4ACA0
:1000B600F0EE8BF0A42CFCE435F0F8EF8AF0A42CDB
:1000C600E5F038FCE433CB8DF0A42CFCE5F03BF8EE
:1000D600EE8AF0A42CFCE5F038F8E433CF89F0A4DE
:1000E6002CFCE5F038CF3400CE89F0A42FFFE5F0E4
:1000F6003EFEE433C98DF0A42EFEE5F039CD8AF03C
:10010600A42FFFE5F03EFEE43DFD33D0E0FB5007B3
:100116000BBB000F0201E0EC2CFCEF33FFEE33FECD
:06012600ED33FD0201B8FB
:10012C0075F020800E75F010800575F0087D007E4E
:10013C00007F003392D530D50312059FEC3340106D
:10014C00EF33FFEE33FEED33FDEC33FCD5F0ED2257
:0E015C00E5F0247EA2D513CC92E7CDCEFF2293
:10016A00EDD2E7CD33EC3392D524814006E4FFFE8D
:10017A00FDFC22FCE4CFCECDCC24E0501174FF80EC
:10018A00EDC3CC13CCCD13CDCE13CECF13CF047089
:07019A00F030D5DE02059FE5
:10060F00E5392425F8E605392278223007027825C6
:10061F00E475F0011205AD0205252000EB7F2ED207
:10062F00008018EF540F2490D43440D4FF30040BC3
:10063F00EF24BFB41A0050032461FFE53A6002159E
:10064F003A053DE53D7002053C30070D7822E47513
:10065F00F0011205ADEF02056B0212807403D20791
:10066F008003E4C207F5398B228A238924E4F53A03
:10067F00F53CF53DE53A60077F2012064A80F57597
:10068F003BFFC201C200C202C203C205C206C208BA
:10069F00120618FF700D3007057F0012065BAF3D85
:1006AF00AE3C22B4255FC2D5C204120618FF24D077
:1006BF00B40A00501A75F00A783A30D50508B6FF1B
:1006CF000106C6A426F620D5047002D20380D924D1
:1006DF00CFB41A00EF5004C2E5D204020948D20188
:1006EF0080C6D20080C0D20280BCD2D580BAD205DB
:1006FF0080B47F2012064A2002077401B53A0040E9
:10070F00F112060FFF12064A020683D208D20680A4
:10071F009512060FFB12060FFA12060FF94A4B70CD
:10072F0006793F7A0A7BFF20022EE53A602A7E0087
:10073F008E8275830012053E60060EEE653B70F0EB
:10074F00C2D5EBC0E0EAC0E0E9C0E0EE1209A8D0E4
:10075F00E0F9D0E0FAD0E0FB120525FF60AAEBC06C
:10076F00E0EAC0E0E9C0E012064AD0E02401F9D087
:10077F00E03400FAD0E0FBE53B0460DCD53BD980E8
:10078F0087D20280A212098B60F7E53B7001041239
:10079F0001EBA93B600DE53B600914F53B120A32F2
:1007AF00EF60F3EA30E702F404C3995077EAF425D7
:1007BF003B0430E701E404F53B800D12098B60C167
:1007CF00EA053B253B1201EBEA7838F630E701E406
:1007DF00253B04D53B04200501141209A8E4C0E011
:1007EF00120A327838E6601320E70714F612063241
:1007FF00802204F6D0E014C0E07F00120632E53B01
:10080F006007120629153B800B300503120629D00D
:10081F00E0020683D0E00480C512098B60A0E53B9F
:10082F00041201EB7838EAF6E53B2005026001047B
:05083F0024041209A8C9
:1008440074FF04C0E0120A32120632E53B200502AE
:100854006003120629D0E0B53BE87F4512063C78D8
:1008640038E67F2B30E7047F2DF404C0E012064AFB
:10087400D0E075F00A84C0F0120633D0E0120633DB
:10088400020683791080027908C206C2088008D261
:10089400D5790A8004790AC2D5E53B047002F53B98
:1008A400E4FAFDFEFF12060FFC7B0820011312067A
:1008B4000FFD7B1030000A12060FFE12060FFF7B9D
:1008C40020EC3382D592D55013C3E43000069FFF49
:1008D400E49EFEE42001039DFDE49CFCE4CBF8C20D
:1008E40001EC700CCFCECDCCE824F8F870F380176F
:1008F400C3EF33FFEE33FEED33FDEC33FCEB33FBA0
:10090400994002FB0FD8E9EB300105F8D0E0C44868
:10091400B201C0E00AEC4D4E4F78207B0070C2EA71
:10092400B53B0040BCC0E01209AAD0F0D0E02001E1
:1009340004C4C0E0C4B201C0F0120633D0F0D5F054
:10094400EB0206831205BD07205308875806F14CB5
:1009540006ED42088B4F0893440893490706430861
:10096400995507CA460828450794470A5F5006F573
:100974002D06F92E071C2B06FD23071A200A482AE8
:1009840006B54800000714E53BB4FF03753B0612A7
:10099400060FFC12060FFD12060FFE12060FFF785B
:1009A4003102021A790AA2D5200314300509B910BC
:1009B400020404B9080104A2D5200602500104204F
:1009C40002689202B53A005034C0E07F2030031927
:1009D4007F30A20272067205500F120A01C202C2CF
:1009E40006C205C2087F30800F300503E9C0E0125B
:1009F400064A300503D0E0F9D0E0B53ACC3005170B
:100A04007F30B9100C12064A7F583004077F788073
:100A140003B9080312064A3002057F2D02064A7FF5
:100A2400202008F87F2B2006F322920280CF7F003B
:100A3400B4070050052431F8E6FF22286E756C6C6B
:100A44002900D20112060F3001F8C201783A30D5DC
:100A54000108F60206B52D5043495812060F240327
:100A6400B405004001E4900A5A9312063B743A120A
:0A0A7400063BD203753A040208871E
:1001A100E9D2E7C933E833F892D5EDD2E7CD33ECA4
:0701B10033FC5002B2D5221D
:1001B800EC30E7100FBF000C0EBE00080DBD0004A8
:1001C8000BEB6014A2D5EB13FCED92E7FD2274FF54
:1001D800FCFDFEFF22E480F8A2D574FF13FC7D80AD
:0301E800E480EFC1
:1001EB00F920E72824F950037907E4F42402FB18DB
:1001FB00DBFDE624FB5014E9600DE4F618E604F68B
:0F020B00B40A08E4F6D9F57401F60A22C2D52226
:10021A00ED33EC3392D5FA602AB4FF33EDC2E77BB3
:10022A00FF60067A02793FE4227A02794820D504EF
:10023A007A027943224E614E002B494E46002D49DF
:10024A004E4600E47A08F608DAFC7B00740722E8D6
:10025A00C0E0ECC0E0EDC0E0EEC0E0EFC0E0EA755F
:10026A00F010A4CAABF075F04DA42BFBE435F0FCFA
:10027A00EA2410FAEB34C5FBEC34D9FCEDC2E7FFF3
:10028A0075F056A4F42411C5F0F434C58FF0A42AED
:10029A00E5F03BE43CF620E7141204E5D0E0FFD099
:1002AA00E0FED0E0FDD0E0FC1204188014F4041241
:1002BA0004E5D0E0FFD0E0FED0E0FDD0E0FC120083
:1002CA0026D0E0F8E6FAEDD2E7CD33EC332482FB10
:1002DA00E4C3CF33CFCE33CECD33CD33DBF37B077D
:1002EA0075F00A846004F6081B0AE5F0F6088FF038
:1002FA00740AA4FFACF08EF0740AA42CFEACF05081
:10030A00010C8DF0740AA42CFDE435F0F608DBDE4E
:03031A0074072243
:10031D000201D6E86480F8E933E83360110460F037
:10032D00ED33EC337009E8FCE9FDEAFEEBFF220446
:10033D0060DED3EB9FEA9EE99DE8C2E78CF0C2F741
:10034D0095F0400CE8CCF8E9CDF9EACEFAEBCFFB0D
:10035D001201A185D0F05804700320D5B3E80470C4
:10036D00075002B2D50201E092D5EC0460F7E4CC5F
:10037D00C0E0C398F8603B94186008400DD0E0FBD6
:10038D000201B8E4FBFAC9FC8028E830E406E4C9B0
:10039D00FBE4CAFCE830E305E4C9CACBFCE854072A
:1003AD006010F8C3E913F9EA13FAEB13FBEC13FC35
:1003BD00D8F130F52FC3E49CFCEF9BFFEE9AFEEDD8
:1003CD0099FDD0E0FBEF4E4D4C701222DB03020184
:1003DD00DDEC2CFCEF33FFEE33FEED33FDED30E7BE
:1003ED00EB0201B8EF2BFFEE3AFEED39FDD0E0FB4D
:1003FD0050130BBB00030201E0ED13FDEE13FEEFF6
:08040D0013FFEC13FC0201B81F
:100415000201E0EC5D046005E8590470030201D6B1
:100425001201A1580460F6EC4860F2EC7004FDFE80
:10043500FF22C860DB2481C85009C39860025006BA
:100445000201DD9850CAF582E9294B4A7005AB8255
:100455000201CC75F0007C1A7880C3EF9BEE9AED13
:1004650099400DC3EF9BFFEE9AFEED99FDE842F032
:10047500DC23ACF0D0E0FFD0E0FED0E0FDAB822085
:10048500E7101BEB60BAEC2CFCEF33FFEE33FEED0F
:1004950033FD0201B8E803F830E705C0F075F00058
:1004A500EF2FFFEE33FEED33FD40B830E7C280AAF3
:1004B5003F8000004120000042C80000447A00004F
:1004C500461C400047C35000497424004B189680D1
:1004D5004CBEBC205A0E1BCA6753C21C749DC5AEC8
:1004E500FB60065407601C2323120513EB54386088
:1004F500091204FF12050E120026ECF8EDF9EEFACA
:10050500EFCB22EB12050E80F1543803241C900426
:10051500B5FE93FC0EEE93FD0EEE930ECE93FF22E9
:03000000020B31BF
:0C0B3100787FE4F6D8FD75817A020B781D
:10052500BB010689828A83E0225002E722BBFE02D4
:09053500E32289828A83E4932207
:10053E00BB010CE58229F582E5833AF583E0225072
:10054E0006E92582F8E622BBFE06E92582F8E222BC
:0D055E00E58229F582E5833AF583E49322D6
:10056B00BB010689828A83F0225002F722BBFE016F
:02057B00F32269
:10057D00F8BB010DE58229F582E5833AF583E8F0B4
:10058D00225006E92582C8F622BBFE05E92582C860
:02059D00F22248
:0E059F00C3E49FFFE49EFEE49DFDE49CFC226D
:1005AD00FAE6FB0808E6F925F0F618E6CA3AF6224F
:1005BD00D083D082F8E4937012740193700DA3A3CD
:1005CD0093F8740193F5828883E4737402936860E1
:0605DD00EFA3A3A380DFE1
:1005E300EF4E6012EF60010EEDBB010B89828A832F
:1005F300F0A3DFFCDEFA2289F05007F709DFFCA93C
:0C060300F022BBFEFCF309DFFCA9F02292
:100B3D000211B8E493A3F8E493A34003F68001F205
:100B4D0008DFF48029E493A3F85407240CC8C333B9
:100B5D00C4540F4420C8834004F456800146F6DF88
:100B6D00E4800B0102040810204080900EB0E47E5A
:100B7D00019360BCA3FF543F30E509541FFEE4937D
:100B8D00A360010ECF54C025E060A840B8E493A344
:100B9D00FAE493A3F8E493A3C8C582C8CAC583CA6F
:100BAD00F0A3C8C582C8CAC583CADFE9DEE780BE27
:010EE8000009
:00000001FF
