:100ACD00083B111111111111111108240000000022
:100ADD000000000008580000000000000000032185
:060AED000B0C0D0156196F
:0B0CEA00EF1FAC0670011E4C70F622DC
:100CBF00EFC43354E0FFE5A0541F4FF5A08D802201
:1007FF00200060D20012078C8F49E5466549FF55EE
:10080F0049F545E549F45FF550854946E54524FB33
:10081F00603724FD601B146020240570360560E5E9
:10082F0060B40303E4F560E5606402702685562C1E
:10083F0022E560B4011D155622E560B40115055679
:10084F00E556B4640E75566322054AE54AB40203B1
:04085F00E4F54A2250
:100A0E00E54A70047F0180027F008F58E560700414
:100A1E007F0180027F008F59E560B401047F018061
:100A2E00027F008F5AE560B402047F0180027F00CE
:030A3E008F5B22A9
:1004D1003002030205B6D202120A738F548E538D75
:1004E100528C51E4FFFE7DC87C42AB54AA53A95201
:1004F100A8511201161203738E4E8F4FE560704B97
:10050100753B0C7C037DE812046E7C007D0A1204AD
:100511006E8D3FAE4EAF4F7C007D6412046E7C0049
:100521007D0A12046E8D40752901AE4EAF4F7C00DD
:100531007D0A12046E7C007D0A12046E8D41AE4E5E
:10054100AF4F7C007D0A12046E8D42E560B401223A
:10055100753B12753F11754011E4F529E55675F0AB
:100561000A8475F00A8485F041E55675F00A8485A0
:10057100F042E5606402703D753B0A753F11AE4C77
:10058100AF4DFC7D6412046E7C007D0A12046E8DF9
:1005910040752901AE4CAF4D7C007D0A12046E7C82
:1005A100007D0A12046E8D41AE4CAF4D7C007D0A78
:0605B10012046E8D4222CF
:1005B700E54A701AAC2C12033FAB54AA53A952A8B0
:1005C700511202BC5005E4F55580037555FFE54A05
:1005D70064017076FFFE7DA07C41AB54AA53A952FB
:1005E700A8511202BC60025005755533805CE4FFC8
:1005F700FE7D207C42AB54AA53A952A8511202BCDB
:100607006002502D7F9A7E997D197C3EAB54AA5388
:10061700A952A851120116E4FBFAF978C012002575
:10062700E4FBFA794C78421201161203738F558056
:1006370019E4FFFE7D207C42AB54AA53A952A8516E
:100647001202BC600540037555CCAC55E412033F5C
:10065700E4FBFA794C784212021FE4FBFA79C87876
:10066700421201161203738E4C8F4DAF55020C5E6A
:100C4900538EBF53890F758B18758DFCC28FD28E49
:050C5900D2ABD2AF2276
:03001B00020703D6
:10070300C0E0C0F0C083C082C0D075D000C000C0BC
:1007130001C002C003C004C005C006C0070544E50C
:100723004470020543FFAE43BE010BBF90087543FF
:1007330000754400C202AE43AF447C007D0A12043C
:100743006EED4C7002C200E5445407FBFF243BF8F6
:10075300E6FD7C0074242BF8E6FB7A001208F2E530
:10076300445407FF2458F8E6FD7C00120933D007F0
:10077300D006D005D004D003D002D001D000D0D011
:09078300D082D083D0F0D0E03226
:100B8900120BC3120C497B007A00792112086312F7
:0D0B990007FF1204D1120A0E1205B780F2F8
:100C9B00E4FEC297EF1392A3EFC313FFD2970EBEDE
:020CAB0008F04F
:010CAD002224
:100C7300C29300C29700D29300120C9BAF05120CD3
:040C83009BC293225B
:1009A600E4FDC29300C29700D29300120C9BE4FFB1
:1009B600C297EDC313FD30A303430580D2970FBF43
:1009C60008EEC29300C29700D29700C2A300D2A33A
:0309D60000AF056A
:0109D90022FB
:060863008B158A168917AF
:10086900E4FD7F8E120C73E4FCEC25E0FFC3748475
:100879009FFFAB15AA16A9178C8275830012040D68
:10088900FE75F00A8475F00A84ADF0EDC454F0FDEC
:10089900EE75F00A84E5F04DFD120C730CBC03C92A
:0708A9007D807F8E020C73BD
:0609DA008B128A13891440
:1009E000E4FCEC25E0FFC374859FFF1209A6EFC469
:1009F000540F75F00AA4FEEF540F2EAB12AA13A9E0
:0D0A0000148C8275830012044C0CBC03D5CD
:010A0D0022C6
:040BFB00D2A07F0AFB
:100BFF00000000000000000000000000000000AE38
:060C0F00071FEE70EB224E
:0F0CCF00D2A1120BFBC2A17F0A120BFFC2A022FF
:0C0CDE00C2A1120BFBD2A17F0A020BFF87
:020AA100AD079F
:100AA300E4FCC2A07F0A120BFFED30E704D2A18061
:100AB30002C2A17F0A120BFFD2A0ED25E0FD7F0A3F
:090AC300120BFF0CBC08DBC2A001
:010ACC002207
:100BA600E4FC120BFBED25E0FD30A103430501C279
:0C0BB600A07F0A120BFF0CBC08E8AF0582
:010BC2002210
:100B6500AB05120CCF7FA0120AA1120B77AF0312AF
:020B75000AA1D3
:100B7700120BFBA2A1E433FDC2A07F0A120BFFAF49
:010B87000568
:010B8800224A
:10000300C2A0EF24FF92A17F0A120BFF120BFBC2C7
:08001300A0D2A17F0A020BFF3D
:020B1B00AB0726
:100B1D00120CCF7F90120B6C120CCF7F91120AA189
:100B2D00120B77120BA6AD077F01120003120CDE1C
:020B3D00AF0502
:010B3F002293
:100C5E00AB07120CCF7F90120AA1120B777F4112B5
:050C6E000B6C020CDE1E
:100A41008B088A09890A120B65AF0C150CEF601F20
:100A5100AB08050AE50AAA097002050914F912038F
:100A6100F4FF120AA1120B777FC8120BFF80DA0282
:020A71000CDE99
:1008B0008B0D8A0E890F120B65120CCF7FA1120AC5
:1008C000A1120B77AF111511EF6024120BA6AB0D1F
:1008D000050FE50FAA0E7002050E14F9EF12043A87
:1008E000E5116004E4FF80027F0112000380D5025D
:0208F0000CDE1C
:040C15007F057E00D9
:100C1900EF1FAA0670011E4A600BE4FDEDC3940C98
:050C290050EE0D80F704
:010C2E0022A3
:070B40007FCC120B477F443C
:020B4700A907FC
:100B4900E4FBC294E9139294120C15D294E9C313ED
:0C0B5900F90BBB08ED7F057E00020C19B3
:100C2F00E4FBC294ECC313FCD294309403430480CE
:090C3F00120C150BBB08EBAF040D
:010C48002289
:100AF400C203D2947F0C7E00120C19C2947F507EE4
:100B040000120C19D2947F0A7E00120C19A294923E
:060B140003120C15A20300
:010B1A0022B8
:100C8700120AF4120B40E4FC7F107E27120C190C99
:030C9700BC08F5A1
:010C9A002237
:100A7300120AF4120B40120AF47FCC120B477FBE0A
:100A8300120B47120C2FA907120C2FEFAD01FCE438
:0D0A930012033AE4FBFA7980784112021F49
:010AA0002233
:100BC3007580FFE5A0541F4480F5A053A01FE4F5F2
:0D0BD30080E5A0541F44A0F5A053A01F22F0
:10078C00E4FFC2C4D2C2D2B5D2B420B0027F0720DB
:10079C00B1027F0620B2027F0520B3027F04D2C4CF
:1007AC00C2C2D2B5D2B420B0027F0B20B1027F0AF4
:1007BC0020B2027F0920B3027F08D2C4D2C2C2B5D4
:1007CC00D2B420B0027F0F20B1027F0E20B2027F84
:1007DC000D20B3027F0CD2C4D2C2D2B5C2B420B0A9
:1007EC00027F1320B1027F1220B2027F1120B302CC
:0207FC007F106C
:0107FE0022D8
:10093300ED4C600F7401A807088002C333D8FC4252
:1009430018800E7401A807088002C333D8FCF45240
:1009530018E51865196013E518F4F580E5A0541F30
:0A0963004480F5A053A01F85181969
:01096D002267
:100BE000C0F9A4B0999282F880908883C6A1868EBD
:0B0BF00040FF8C010204081020408030
:1008F2007580FFE5A0541F44E0F5A053A01FEF90C0
:100902000BF393F580E5A0541F44C0F5A053A01F3C
:1009120074E02DF582740B3CF583E493F580EB4A89
:10092200600353807FE5A0541F44E0F5A053A01F4D
:0109320022A2
:060CF50000007F21DFFE7C
:010CFB0022D6
:100CAE00E4FED290120CF5C290120CF50EBE08F2B4
:010CBE002213
:10096E00E4F5D9F5E9F5F9120CAED2DE309103308B
:10097E00DFFAC2DE20DF1CAFF9EFFEADE9EDFFAC12
:10098E0006E412033A7B967A43798B783C12011671
:07099E00020373C2DF7F00BA
:0109A500222F
:10001E000203DFE86480F8E933E83360110460F02E
:10002E00ED33EC337009E8FCE9FDEAFEEBFF220448
:10003E0060DED3EB9FEA9EE99DE8C2E78CF0C2F743
:10004E0095F0400CE8CCF8E9CDF9EACEFAEBCFFB0F
:10005E001203AA85D0F05804700320D5B3E80470BB
:10006E00075002B2D50203E992D5EC0460F7E4CC56
:10007E00C0E0C398F8603B94186008400DD0E0FBD8
:10008E000203C1E4FBFAC9FC8028E830E406E4C9A7
:10009E00FBE4CAFCE830E305E4C9CACBFCE854072C
:1000AE006010F8C3E913F9EA13FAEB13FBEC13FC37
:1000BE00D8F130F52FC3E49CFCEF9BFFEE9AFEEDDA
:1000CE0099FDD0E0FBEF4E4D4C701222DB03020384
:1000DE00E6EC2CFCEF33FFEE33FEED33FDED30E7B7
:1000EE00EB0203C1EF2BFFEE3AFEED39FDD0E0FB44
:1000FE0050130BBB00030203E9ED13FDEE13FEEFED
:08010E0013FFEC13FC0203C116
:10011600EC4D6011E8497017ED33EC3304600DE4E3
:10012600FCFFFEFD22E933E8330470F80203DF1218
:1001360003AA58046009E4CC248150062850090219
:1001460003E92840030203E6C0E0EB4A7044B980A5
:1001560006D0E0FB0203D5EF4E701CBD8008EBFF16
:10016600EAFEE9FD80EBE98DF0A4FEE5F00201FF71
:10017600E9CDF9EAFEEBFFEF89F0A4FCE5F0CE89C4
:10018600F0A42EFFE435F0CD89F0A42DFEE435F081
:100196008067EF4E7005BD80D780C3EF8BF0A4ACAF
:1001A600F0EE8BF0A42CFCE435F0F8EF8AF0A42CEA
:1001B600E5F038FCE433CB8DF0A42CFCE5F03BF8FD
:1001C600EE8AF0A42CFCE5F038F8E433CF89F0A4ED
:1001D6002CFCE5F038CF3400CE89F0A42FFFE5F0F3
:1001E6003EFEE433C98DF0A42EFEE5F039CD8AF04B
:1001F600A42FFFE5F03EFEE43DFD33D0E0FB5007C3
:100206000BBB000F0203E9EC2CFCEF33FFEE33FED1
:06021600ED33FD0203C1FF
:10021C000203E9EC5D046005E8590470030203DF96
:10022C001203AA580460F6EC4860F2EC7004FDFE70
:10023C00FF22C860DB2481C85009C39860025006B5
:10024C000203E69850CAF582E9294B4A7005AB8245
:10025C000203D575F0007C1A7880C3EF9BEE9AED03
:10026C0099400DC3EF9BFFEE9AFEED99FDE842F02D
:10027C00DC23ACF0D0E0FFD0E0FED0E0FDAB822080
:10028C00E7101BEB60BAEC2CFCEF33FFEE33FEED0A
:10029C0033FD0203C1E803F830E705C0F075F00048
:1002AC00EF2FFFEE33FEED33FD40B830E7C280AAEE
:1002BC0074F8CC6480CCC86480C8F58204604FC3E9
:1002CC00EB9FF5F0EA9E42F0E99D42F0E89C45F088
:1002DC00603C501DE5825FFFE582D313CB5BCBF412
:1002EC002B5582FB50280ABA002409B9002008803B
:1002FC001DE5825BFBE582D313CF5FCFF4C3132FD5
:10030C005582FF50090EBE00050DBD00010CC3EB5C
:10031C009FF5F0EA9E42F0E99D42F0E89C45F060C2
:09032C0007CC4820E701B3EC22E4
:1003350075F020800E75F010800575F0087D007E43
:10034500007F003392D530D5031204C3EC3340103F
:10035500EF33FFEE33FEED33FDEC33FCD5F0ED224C
:0E036500E5F0247EA2D513CC92E7CDCEFF2288
:10037300EDD2E7CD33EC3392D524814006E4FFFE82
:10038300FDFC22FCE4CFCECDCC24E0501174FF80E1
:10039300EDC3CC13CCCD13CDCE13CECF13CF04707E
:0703A300F030D5DE0204C3B7
:1003AA00E9D2E7C933E833F892D5EDD2E7CD33EC99
:0703BA0033FC5002B2D52212
:1003C100EC30E7100FBF000C0EBE00080DBD00049D
:1003D1000BEB6014A2D5EB13FCED92E7FD2274FF49
:1003E100FCFDFEFF22E480F8A2D574FF13FC7D80A2
:0303F100E480EFB6
:030000000206777E
:0C067700787FE4F6D8FD7581600206BEB5
:1003F400BB010689828A83E0225002E722BBFE0207
:09040400E32289828A83E4932239
:10040D00BB010CE58229F582E5833AF583E02250A4
:10041D0006E92582F8E622BBFE06E92582F8E222EE
:0D042D00E58229F582E5833AF583E4932208
:10043A00BB010689828A83F0225002F722BBFE01A1
:02044A00F3229B
:10044C00F8BB010DE58229F582E5833AF583E8F0E6
:10045C00225006E92582C8F622BBFE05E92582C892
:02046C00F2227A
:10046E00BC000BBE0029EF8DF084FFADF022E4CC72
:10047E00F875F008EF2FFFEE33FEEC33FCEE9DEC3B
:10048E00984005FCEE9DFE0FD5F0E9E4CEFD22ED81
:10049E00F8F5F0EE8420D21CFEADF075F008EF2FCB
:1004AE00FFED33FD4007985006D5F0F222C398FDBC
:0504BE000FD5F0EA2259
:0E04C300C3E49FFFE49EFEE49DFDE49CFC224A
:10068300020B89E493A3F8E493A34003F68001F2F9
:1006930008DFF48029E493A3F85407240CC8C33378
:1006A300C4540F4420C8834004F456800146F6DF47
:1006B300E4800B0102040810204080900ACDE47E00
:1006C300019360BCA3FF543F30E509541FFEE4933C
:1006D300A360010ECF54C025E060A840B8E493A303
:1006E300FAE493A3F8E493A3C8C582C8CAC583CA2E
:1006F300F0A3C8C582C8CAC583CADFE9DEE780BEE6
:010AF3000002
:00000001FF
