:1009C400083C11111111111111110825000000002A
:1009D4000000000008560000000000000000032191
:1009E400083B32016000C104C10302530017C10176
:0B0C8500EF1FAC0670011E4C70F62241
:100C5A00EFC43354E0FFE5A0541F4FF5A08D802266
:1005E10030000302067ED20012070B8F4AE54765F1
:1005F1004AFF554AF546E54AF45FF54E854A47E517
:100601004624F3602F24FD602F146046240570609A
:10061100E5246018E52FC3941E50110560E560B410
:100621000303E4F560E4F524F52F8044752401E427
:10063100F52F803CB2048038E560640270320554C5
:10064100E55470020553646345537024F553F55422
:10065100801EE560B40212E554155470021553145E
:1006610045537005F553755463E560B40102D20139
:0E067100E54E24EF7007E560B40102C20122DD
:1009F500E522700CE523D394055005755601800357
:100A0500E4F5562004057557018003E4F5573003D6
:0C0A150007A202E433F55822E4F5582251
:1008F60020041DAC53AD54E4120242AB52AA51A9D6
:1009060050A84F1201C460064004D2038002C203FD
:10091600300410E522700AE523D394055003D20370
:0409260022C20322C4
:1003D9003006030204EDD2061208C18F528E518DE8
:1003E900508C4FE4FFFE7D207C41AB52AA51A950AD
:1003F900A84F12001E12027B8E4C8F4DE56070399A
:10040900753C12753D01FC7D641203767C007D0A02
:100419001203768D41AE4CAF4D7C007D0A120376F6
:100429007C007D0A1203768D42752B01AE4CAF4DCF
:100439007C007D0A1203768D43E560640170707556
:100449003C12753D02200132E52175F00A8475F0F0
:100459000A8485F03FE52175F00A8485F0407541ED
:1004690010E52275F00A8475F00A8485F042E4F5F6
:100479002BE52275F00A8485F043300132E52275B7
:10048900F00A8475F00A8485F03FE52275F00A8444
:1004990085F040754110E52375F00A8475F00A84EA
:1004A90085F042E4F52BE52375F00A8485F043E5F0
:1004B900606402702F753C12753D03753F117540DC
:1004C90011754111AE53AF54FC7D0A1203767C00BD
:1004D9007D0A1203768D42AE53AF547C007D0A1219
:0504E90003768D4322A3
:100BF800538EBF53890F758B18758DFCC28FD28E9B
:050C0800D2ABD2AF22C7
:03001B000204EEEE
:1004EE00C0E0C0F0C083C082C0D075D000C000C0D4
:1004FE0001C002C003C004C005C006C0070545E523
:10050E004570020544FFAE44BE010BBF9008754412
:10051E0000754500C206AE44AF457C007D0A12034D
:10052E0076ED4C7015C200E524600F052FE52FC344
:10053E00941E4006752400752F00ED4C7008FB7A52
:10054E0000792112095E3005080549E5497002055A
:10055E0048053BE53B7002053AFFAE3ABE0319BFB4
:10056E00E816753A00753B00AF8CEFAD8AF52DEDB0
:10057E00F52E758C00758A00AE44AF457C007D6407
:10058E00120376ED4C7002B202E5455407FBFF24D0
:10059E003CF8E6FD7C0074252BF8E6FB7A00120889
:1005AE000DE5455407FF2456F8E6FD7C0012084E73
:1005BE00A203E433FF120ABDD007D006D005D00443
:1005CE00D003D002D001D000D0D0D082D083D0F0D2
:0305DE00D0E03238
:100B2100120B5B120BF87B007A00792112077E12FF
:0D0B310005E11203D91209F51208F680F251
:100C3600E4FEC297EF1392A3EFC313FFD2970EBE43
:020C460008F0B4
:010C48002289
:100C2200C29300C29700D29300120C36AF05120C89
:040C320036C2932211
:10092A00E4FDC29300C29700D29300120C36E4FF92
:10093A00C297EDC313FD30A303430580D2970FBFBF
:10094A0008EEC29300C29700D29700C2A300D2A3B6
:03095A0000AF05E6
:01095D002277
:06077E008B118A128913A1
:10078400E4FD7F8E120C22E4FCEC25E0FFC37484AC
:100794009FFFAB11AA12A9138C8275830012031553
:1007A400FE75F00A8475F00A84ADF0EDC454F0FDD2
:1007B400EE75F00A84E5F04DFD120C220CBC03C961
:0707C4007D807F8E020C22F4
:06095E008B0E8A0F8910C8
:10096400E4FCEC25E0FFC374859FFF12092AEFC461
:10097400540F75F00AA4FEEF540F2EAB0EAA0FA964
:0D098400108C827583001203540CBC03D547
:010991002243
:040B9300D2A07F0A63
:100B9700000000000000000000000000000000AEA0
:060BA700071FEE70EB22B7
:0F0C6A00D2A1120B93C2A17F0A120B97C2A02234
:0C0C7900C2A1120B93D2A17F0A020B97BC
:020A2100AD071F
:100A2300E4FCC2A07F0A120B97ED30E704D2A18049
:100A330002C2A17F0A120B97D2A0ED25E0FD7F0A27
:090A4300120B970CBC08DBC2A0E9
:010A4C002287
:100B3E00E4FC120B93ED25E0FD30A103430501C249
:0C0B4E00A07F0A120B970CBC08E8AF0552
:010B5A002278
:100A9900AB05120C6A7FA0120A21120AABAF03122E
:020AA9000A2120
:100AAB00120B93A2A1E433FDC2A07F0A120B97AFE6
:010ABB000535
:010ABC002217
:10000300C2A0EF24FF92A17F0A120B97120B93C297
:08001300A0D2A17F0A020B97A5
:020A7400AB07CE
:100A7600120C6A7F90120AA0120C6A7F91120A2148
:100A8600120AAB120B3EAD077F01120003120C795E
:020A9600AF05AA
:010A9800223B
:100C0D00AB07120C6A7F90120A21120AAB7F4112B8
:050C1D000AA0020C79A1
:100992008B148A158916120A99AF181518EF601F61
:1009A200AB140516E516AA157002051514F9120204
:1009B200FCFF120A21120AAB7FC8120B9780DA02DF
:0209C2000C79AE
:1007CB008B198A1A891B120A99120C6A7FA1120AB9
:1007DB0021120AABAF1D151DEF6024120B3EAB1996
:1007EB00051BE51BAA1A7002051A14F9EF12034236
:1007FB00E51D6004E4FF80027F0112000380D50237
:02080B000C7966
:040BAD007F057E0042
:100BB100EF1FAA0670011E4A600BE4FDEDC3940C01
:050BC10050EE0D80F76D
:010BC600220C
:020B0300A90740
:100B0500E4FBC294E9139294120BADD294E9C3139A
:0C0B1500F90BBB08ED7F057E00020BB160
:100BC700E4FBC294ECC313FCD29430940343048037
:090BD700120BAD0BBB08EBAF04DF
:010BE00022F2
:100A4D00C207D2947F0C7E00120BB1C2947F507EF0
:100A5D0000120BB1D2947F0A7E00120BB1A29492B8
:060A6D0007120BADA20709
:010A73002260
:1008C100120A4D7FCC120B037F44120B03120A4D07
:1008D1007FCC120B037FBE120B03120BC7A90712A9
:1008E1000BC7EFAD01FCE4120242E4FBFA79807818
:0408F1004112012788
:0108F50022E0
:100B5B007580FFE5A0541F4480F5A053A01FE4F55A
:0D0B6B0080E5A0541F44A0F5A053A01F2258
:10070B00E4FFC2C4D2C2D2B5D2B420B0027F07205C
:10071B00B1027F0620B2027F0520B3027F04D2C450
:10072B00C2C2D2B5D2B420B0027F0B20B1027F0A75
:10073B0020B2027F0920B3027F08D2C4D2C2C2B555
:10074B00D2B420B0027F0F20B1027F0E20B2027F05
:10075B000D20B3027F0CD2C4D2C2D2B5C2B420B02A
:10076B00027F1320B1027F1220B2027F1120B3024D
:02077B007F10ED
:01077D002259
:10084E00ED4C600F7401A807088002C333D8FC4238
:10085E0008800E7401A807088002C333D8FCF45236
:10086E0008E50865096013E508F4F580E5A0541F56
:0A087E004480F5A053A01F8508096F
:01088800224D
:100ABD00EF6005430A108003530AEFE50A650B60EA
:100ACD0011850A80E5A0541F44A0F5A053A01F85F1
:020ADD000A0B02
:010ADF0022F4
:100AE000EF6005430C408003530CBFE50C650D60BF
:100AF00011850C80E5A0541F44A0F5A053A01F85CC
:020B00000C0DDA
:010B020022D0
:100B7800C0F9A4B0999282F880908883C6A1868E25
:0B0B8800BFFFC10102040810204080E4
:10080D007580FFE5A0541F44E0F5A053A01FEF90A5
:10081D000B8B93F580E5A0541F44C0F5A053A01F8A
:10082D0074782DF582740B3CF583E493F580EB4AD7
:10083D00600353807FE5A0541F44E0F5A053A01F33
:01084D002288
:100BE100759850438E01438E0475D7C775D6FE4361
:070BF1008E10D2ACD2AF223E
:080C90008F993099FDC29922F1
:060C980000007F21DFFED9
:010C9E002233
:100C4900E4FED290120C98C290120C980EBE08F2D3
:010C59002278
:10088900E4F5D9F5E9F5F9120C49D2DE30910330D6
:10089900DFFAC2DE20DF1CAFF9EFFEADE9EDFFACF8
:1008A90006E41202427B967A43798B783C12001E49
:0708B90002027BC2DF7F0099
:0108C0002215
:10001E00EC4D6011E8497017ED33EC3304600DE4DC
:10002E00FCFFFEFD22E933E8330470F80202E7120A
:10003E0002B258046009E4CC24815006285009020B
:10004E0002F12840030202EEC0E0EB4A7044B98090
:10005E0006D0E0FB0202DDEF4E701CBD8008EBFF08
:10006E00EAFEE9FD80EBE98DF0A4FEE5F002010762
:10007E00E9CDF9EAFEEBFFEF89F0A4FCE5F0CE89BD
:10008E00F0A42EFFE435F0CD89F0A42DFEE435F07A
:10009E008067EF4E7005BD80D780C3EF8BF0A4ACA8
:1000AE00F0EE8BF0A42CFCE435F0F8EF8AF0A42CE3
:1000BE00E5F038FCE433CB8DF0A42CFCE5F03BF8F6
:1000CE00EE8AF0A42CFCE5F038F8E433CF89F0A4E6
:1000DE002CFCE5F038CF3400CE89F0A42FFFE5F0EC
:1000EE003EFEE433C98DF0A42EFEE5F039CD8AF044
:1000FE00A42FFFE5F03EFEE43DFD33D0E0FB5007BC
:10010E000BBB000F0202F1EC2CFCEF33FFEE33FEC3
:06011E00ED33FD0202C9F1
:100124000202F1EC5D046005E8590470030202E781
:100134001202B2580460F6EC4860F2EC7004FDFE62
:10014400FF22C860DB2481C85009C39860025006AE
:100154000202EE9850CAF582E9294B4A7005AB8237
:100164000202DD75F0007C1A7880C3EF9BEE9AEDF5
:1001740099400DC3EF9BFFEE9AFEED99FDE842F026
:10018400DC23ACF0D0E0FFD0E0FED0E0FDAB822079
:10019400E7101BEB60BAEC2CFCEF33FFEE33FEED03
:1001A40033FD0202C9E803F830E705C0F075F0003A
:1001B400EF2FFFEE33FEED33FD40B830E7C280AAE7
:1001C40074F8CC6480CCC86480C8F58204604FC3E2
:1001D400EB9FF5F0EA9E42F0E99D42F0E89C45F081
:1001E400603C501DE5825FFFE582D313CB5BCBF40B
:1001F4002B5582FB50280ABA002409B90020088034
:100204001DE5825BFBE582D313CF5FCFF4C3132FCD
:100214005582FF50090EBE00050DBD00010CC3EB55
:100224009FF5F0EA9E42F0E99D42F0E89C45F060BB
:0902340007CC4820E701B3EC22DD
:10023D0075F020800E75F010800575F0087D007E3C
:10024D00007F003392D530D5031203CBEC33401031
:10025D00EF33FFEE33FEED33FDEC33FCD5F0ED2245
:0E026D00E5F0247EA2D513CC92E7CDCEFF2281
:10027B00EDD2E7CD33EC3392D524814006E4FFFE7B
:10028B00FDFC22FCE4CFCECDCC24E0501174FF80DA
:10029B00EDC3CC13CCCD13CDCE13CECF13CF047077
:0702AB00F030D5DE0203CBA9
:1002B200E9D2E7C933E833F892D5EDD2E7CD33EC92
:0702C20033FC5002B2D5220B
:1002C900EC30E7100FBF000C0EBE00080DBD000496
:1002D9000BEB6014A2D5EB13FCED92E7FD2274FF42
:1002E900FCFDFEFF22E480F8A2D574FF13FC7D809B
:0302F900E480EFAF
:0300000002067F76
:0C067F00787FE4F6D8FD7581600206C6A5
:1002FC00BB010689828A83E0225002E722BBFE0200
:09030C00E32289828A83E4932232
:10031500BB010CE58229F582E5833AF583E022509D
:1003250006E92582F8E622BBFE06E92582F8E222E7
:0D033500E58229F582E5833AF583E4932201
:10034200BB010689828A83F0225002F722BBFE019A
:02035200F32294
:10035400F8BB010DE58229F582E5833AF583E8F0DF
:10036400225006E92582C8F622BBFE05E92582C88B
:02037400F22273
:10037600BC000BBE0029EF8DF084FFADF022E4CC6B
:10038600F875F008EF2FFFEE33FEEC33FCEE9DEC34
:10039600984005FCEE9DFE0FD5F0E9E4CEFD22ED7A
:1003A600F8F5F0EE8420D21CFEADF075F008EF2FC4
:1003B600FFED33FD4007985006D5F0F222C398FDB5
:0503C6000FD5F0EA2252
:0E03CB00C3E49FFFE49EFEE49DFDE49CFC2243
:10068B00020B21E493A3F8E493A34003F68001F259
:10069B0008DFF48029E493A3F85407240CC8C33370
:1006AB00C4540F4420C8834004F456800146F6DF3F
:1006BB00E4800B01020408102040809009C4E47E02
:1006CB00019360BCA3FF543F30E509541FFEE49334
:1006DB00A360010ECF54C025E060A840B8E493A3FB
:1006EB00FAE493A3F8E493A3C8C582C8CAC583CA26
:1006FB00F0A3C8C582C8CAC583CADFE9DEE780BEDE
:0109F4000002
:00000001FF
