:10099900083A111111111111111108240000000058
:1009A90000000000085400000000000000000321BE
:1009B900083B32015E00C104C10302510017C101A5
:0B0C5A00EF1FAC0670011E4C70F6226C
:100C2F00EFC43354E0FFE5A0541F4FF5A08D802291
:10065A003000030206DFD2001206E08F48E5456546
:10066A0048FF5548F544E548F45FF54C854845E5AB
:10067A004424F3601724FD601714602E2405704883
:10068A00055EE55E64037040F55E803CB204803826
:10069A00E55E640270320552E552700205516463E8
:1006AA0045517024F551F552801EE55EB40212E5FB
:1006BA00521552700215511445517005F551755273
:1006CA0063E55EB40102D201E54C24EF7007E55EF2
:0606DA00B40102C201227E
:1009CA00E522700CE523D394055005755401800384
:1009DA00E4F5542004057555018003E4F555300308
:0C09EA0007A202E433F55622E4F5562281
:1008CB0020041DAC51AD52E4120242AB50AA4FA909
:1008DB004EA84D1201C460064004D2038002C2032D
:1008EB00300410E522700AE523D394055003D2039C
:0408FB0022C20322F0
:1003D9003006030204EDD2061208968F508E4F8D17
:1003E9004E8C4DE4FFFE7D207C41AB50AA4FA94EB7
:1003F900A84D12001E12027B8E4A8F4BE55E7039A2
:10040900753A12753B01FC7D641203767C007D0A06
:100419001203768D3FAE4AAF4B7C007D0A120376FC
:100429007C007D0A1203768D40752A01AE4AAF4BD6
:100439007C007D0A1203768D41E55E64017070755A
:100449003A12753B02200132E52175F00A8475F0F4
:100459000A8485F03DE52175F00A8485F03E753FF3
:1004690010E52275F00A8475F00A8485F040E4F5F8
:100479002AE52275F00A8485F041300132E52275BA
:10048900F00A8475F00A8485F03DE52275F00A8446
:1004990085F03E753F10E52375F00A8475F00A84EE
:1004A90085F040E4F52AE52375F00A8485F041E5F5
:1004B9005E6402702F753A12753B03753D11753EE6
:1004C90011753F11AE51AF52FC7D0A1203767C00C3
:1004D9007D0A1203768D40AE51AF527C007D0A121F
:0504E90003768D4122A5
:100BCD00538EBF53890F758B18758DFCC28FD28EC6
:050BDD00D2ABD2AF22F3
:03001B000204EEEE
:1004EE00C0E0C0F0C083C082C0D075D000C000C0D4
:1004FE0001C002C003C004C005C006C0070543E525
:10050E004370020542FFAE42BE010BBF900875421A
:10051E0000754300C206AE42AF437C007D0A120353
:10052E0076ED4C7002C200ED4C7008FB7A0079211A
:10053E001209333005080547E547700205460539AF
:10054E00E53970020538FFAE38BE0319BFE81675DF
:10055E003800753900AF8CEFAD8AF52CEDF52D75A1
:10056E008C00758A00AE42AF437C007D6412037628
:10057E00ED4C7002B202E5435407FBFF243AF8E655
:10058E00FD7C0074242BF8E6FB7A001207E2E543AB
:10059E005407FF2454F8E6FD7C00120823A203E45E
:1005AE0033FF120A92D007D006D005D004D003D064
:1005BE0002D001D000D0D0D082D083D0F0D0E032A3
:100AF600120B30120BCD7B007A00792112075312AC
:0D0B0600065A1203D91209CA1208CB80F258
:100C0B00E4FEC297EF1392A3EFC313FFD2970EBE6E
:020C1B0008F0DF
:010C1D0022B4
:100BF700C29300C29700D29300120C0BAF05120CE0
:040C07000BC2932267
:1008FF00E4FDC29300C29700D29300120C0BE4FFE9
:10090F00C297EDC313FD30A303430580D2970FBFEA
:10091F0008EEC29300C29700D29700C2A300D2A3E1
:03092F0000AF0511
:0109320022A2
:060753008B118A128913CC
:10075900E4FD7F8E120BF7E4FCEC25E0FFC3748403
:100769009FFFAB11AA12A9138C827583001203157E
:10077900FE75F00A8475F00A84ADF0EDC454F0FDFD
:10078900EE75F00A84E5F04DFD120BF70CBC03C9B8
:070799007D807F8E020BF74B
:060933008B0E8A0F8910F3
:10093900E4FCEC25E0FFC374859FFF1208FFEFC4B8
:10094900540F75F00AA4FEEF540F2EAB0EAA0FA98F
:0D095900108C827583001203540CBC03D572
:01096600226E
:040B6800D2A07F0A8E
:100B6C00000000000000000000000000000000AECB
:060B7C00071FEE70EB22E2
:0F0C3F00D2A1120B68C2A17F0A120B6CC2A022B5
:0C0C4E00C2A1120B68D2A17F0A020B6C3D
:0209F600AD074B
:1009F800E4FCC2A07F0A120B6CED30E704D2A180A0
:100A080002C2A17F0A120B6CD2A0ED25E0FD7F0A7D
:090A1800120B6C0CBC08DBC2A03F
:010A210022B2
:100B1300E4FC120B68ED25E0FD30A103430501C29F
:0C0B2300A07F0A120B6C0CBC08E8AF05A8
:010B2F0022A3
:100A6E00AB05120C3F7FA01209F6120A80AF0312DB
:020A7E0009F677
:100A8000120B68A2A1E433FDC2A07F0A120B6CAF67
:010A90000560
:010A91002242
:10000300C2A0EF24FF92A17F0A120B6C120B68C2ED
:08001300A0D2A17F0A020B6CD0
:020A4900AB07F9
:100A4B00120C3F7F90120A75120C3F7F911209F620
:100A5B00120A80120B13AD077F01120003120C4E0A
:020A6B00AF05D5
:010A6D002266
:100BE200AB07120C3F7F901209F6120A807F411266
:050BF2000A75020C4E23
:100967008B148A158916120A6EAF181518EF601FB7
:10097700AB140516E516AA157002051514F912022F
:10098700FCFF1209F6120A807FC8120B6C80DA028C
:020997000C4E04
:1007A0008B198A1A891B120A6E120C3F7FA112093B
:1007B000F6120A80AF1D151DEF6024120B13AB1942
:1007C000051BE51BAA1A7002051A14F9EF12034261
:1007D000E51D6004E4FF80027F0112000380D50262
:0207E0000C4EBD
:040B82007F057E006D
:100B8600EF1FAA0670011E4A600BE4FDEDC3940C2C
:050B960050EE0D80F798
:010B9B002237
:020AD800A9076C
:100ADA00E4FBC294E9139294120B82D294E9C313F1
:0C0AEA00F90BBB08ED7F057E00020B86B7
:100B9C00E4FBC294ECC313FCD29430940343048062
:090BAC00120B820BBB08EBAF0435
:010BB500221D
:100A2200C207D2947F0C7E00120B86C2947F507E46
:100A320000120B86D2947F0A7E00120B86A2949239
:060A420007120B82A2075F
:010A4800228B
:10089600120A227FCC120AD87F44120AD8120A22E0
:1008A6007FCC120AD87FBE120AD8120B9CA9071257
:1008B6000B9CEFAD01FCE4120242E4FBFA7980786E
:0408C60041120127B3
:0108CA00220B
:100B30007580FFE5A0541F4480F5A053A01FE4F585
:0D0B400080E5A0541F44A0F5A053A01F2283
:1006E000E4FFC2C4D2C2D2B5D2B420B0027F072088
:1006F000B1027F0620B2027F0520B3027F04D2C47C
:10070000C2C2D2B5D2B420B0027F0B20B1027F0AA0
:1007100020B2027F0920B3027F08D2C4D2C2C2B580
:10072000D2B420B0027F0F20B1027F0E20B2027F30
:100730000D20B3027F0CD2C4D2C2D2B5C2B420B055
:10074000027F1320B1027F1220B2027F1120B30278
:020750007F1018
:010752002284
:10082300ED4C600F7401A807088002C333D8FC4263
:1008330008800E7401A807088002C333D8FCF45261
:1008430008E50865096013E508F4F580E5A0541F81
:0A0853004480F5A053A01F8508099A
:01085D002278
:100A9200EF6005430A108003530AEFE50A650B6015
:100AA20011850A80E5A0541F44A0F5A053A01F851C
:020AB2000A0B2D
:010AB400221F
:100AB500EF6005430C408003530CBFE50C650D60EA
:100AC50011850C80E5A0541F44A0F5A053A01F85F7
:020AD5000C0D06
:010AD70022FC
:100B4D00C0F9A4B0999282F880908883C6A1868E50
:0B0B5D00BFFFC101020408102040800F
:1007E2007580FFE5A0541F44E0F5A053A01FEF90D1
:1007F2000B6093F580E5A0541F44C0F5A053A01FE1
:10080200744D2DF582740B3CF583E493F580EB4A2D
:10081200600353807FE5A0541F44E0F5A053A01F5E
:0108220022B3
:100BB600759850438E01438E0475D7C775D6FE438C
:070BC6008E10D2ACD2AF2269
:080C65008F993099FDC299221C
:060C6D0000007F21DFFE04
:010C7300225E
:100C1E00E4FED290120C6DC290120C6D0EBE08F254
:010C2E0022A3
:10085E00E4F5D9F5E9F5F9120C1ED2DE309103302C
:10086E00DFFAC2DE20DF1CAFF9EFFEADE9EDFFAC23
:10087E0006E41202427B967A43798B783C12001E74
:07088E0002027BC2DF7F00C4
:010895002240
:10001E00EC4D6011E8497017ED33EC3304600DE4DC
:10002E00FCFFFEFD22E933E8330470F80202E7120A
:10003E0002B258046009E4CC24815006285009020B
:10004E0002F12840030202EEC0E0EB4A7044B98090
:10005E0006D0E0FB0202DDEF4E701CBD8008EBFF08
:10006E00EAFEE9FD80EBE98DF0A4FEE5F002010762
:10007E00E9CDF9EAFEEBFFEF89F0A4FCE5F0CE89BD
:10008E00F0A42EFFE435F0CD89F0A42DFEE435F07A
:10009E008067EF4E7005BD80D780C3EF8BF0A4ACA8
:1000AE00F0EE8BF0A42CFCE435F0F8EF8AF0A42CE3
:1000BE00E5F038FCE433CB8DF0A42CFCE5F03BF8F6
:1000CE00EE8AF0A42CFCE5F038F8E433CF89F0A4E6
:1000DE002CFCE5F038CF3400CE89F0A42FFFE5F0EC
:1000EE003EFEE433C98DF0A42EFEE5F039CD8AF044
:1000FE00A42FFFE5F03EFEE43DFD33D0E0FB5007BC
:10010E000BBB000F0202F1EC2CFCEF33FFEE33FEC3
:06011E00ED33FD0202C9F1
:100124000202F1EC5D046005E8590470030202E781
:100134001202B2580460F6EC4860F2EC7004FDFE62
:10014400FF22C860DB2481C85009C39860025006AE
:100154000202EE9850CAF582E9294B4A7005AB8237
:100164000202DD75F0007C1A7880C3EF9BEE9AEDF5
:1001740099400DC3EF9BFFEE9AFEED99FDE842F026
:10018400DC23ACF0D0E0FFD0E0FED0E0FDAB822079
:10019400E7101BEB60BAEC2CFCEF33FFEE33FEED03
:1001A40033FD0202C9E803F830E705C0F075F0003A
:1001B400EF2FFFEE33FEED33FD40B830E7C280AAE7
:1001C40074F8CC6480CCC86480C8F58204604FC3E2
:1001D400EB9FF5F0EA9E42F0E99D42F0E89C45F081
:1001E400603C501DE5825FFFE582D313CB5BCBF40B
:1001F4002B5582FB50280ABA002409B90020088034
:100204001DE5825BFBE582D313CF5FCFF4C3132FCD
:100214005582FF50090EBE00050DBD00010CC3EB55
:100224009FF5F0EA9E42F0E99D42F0E89C45F060BB
:0902340007CC4820E701B3EC22DD
:10023D0075F020800E75F010800575F0087D007E3C
:10024D00007F003392D530D5031203CBEC33401031
:10025D00EF33FFEE33FEED33FDEC33FCD5F0ED2245
:0E026D00E5F0247EA2D513CC92E7CDCEFF2281
:10027B00EDD2E7CD33EC3392D524814006E4FFFE7B
:10028B00FDFC22FCE4CFCECDCC24E0501174FF80DA
:10029B00EDC3CC13CCCD13CDCE13CECF13CF047077
:0702AB00F030D5DE0203CBA9
:1002B200E9D2E7C933E833F892D5EDD2E7CD33EC92
:0702C20033FC5002B2D5220B
:1002C900EC30E7100FBF000C0EBE00080DBD000496
:1002D9000BEB6014A2D5EB13FCED92E7FD2274FF42
:1002E900FCFDFEFF22E480F8A2D574FF13FC7D809B
:0302F900E480EFAF
:030000000205CE28
:0C05CE00787FE4F6D8FD75815E0206150A
:1002FC00BB010689828A83E0225002E722BBFE0200
:09030C00E32289828A83E4932232
:10031500BB010CE58229F582E5833AF583E022509D
:1003250006E92582F8E622BBFE06E92582F8E222E7
:0D033500E58229F582E5833AF583E4932201
:10034200BB010689828A83F0225002F722BBFE019A
:02035200F32294
:10035400F8BB010DE58229F582E5833AF583E8F0DF
:10036400225006E92582C8F622BBFE05E92582C88B
:02037400F22273
:10037600BC000BBE0029EF8DF084FFADF022E4CC6B
:10038600F875F008EF2FFFEE33FEEC33FCEE9DEC34
:10039600984005FCEE9DFE0FD5F0E9E4CEFD22ED7A
:1003A600F8F5F0EE8420D21CFEADF075F008EF2FC4
:1003B600FFED33FD4007985006D5F0F222C398FDB5
:0503C6000FD5F0EA2252
:0E03CB00C3E49FFFE49EFEE49DFDE49CFC2243
:1005DA00020AF6E493A3F8E493A34003F68001F237
:1005EA0008DFF48029E493A3F85407240CC8C33322
:1005FA00C4540F4420C8834004F456800146F6DFF1
:10060A00E4800B0102040810204080900999E47EDE
:10061A00019360BCA3FF543F30E509541FFEE493E5
:10062A00A360010ECF54C025E060A840B8E493A3AC
:10063A00FAE493A3F8E493A3C8C582C8CAC583CAD7
:10064A00F0A3C8C582C8CAC583CADFE9DEE780BE8F
:0109C900002D
:00000001FF
