:100B8F00083F111111111111111108270000000058
:100B9F0000000000085C00000000000000000323BC
:0C0BAF000D0305015A1E01260001640020
:0B0E3D00EF1FAC0670011E4C70F62287
:100E1200EFC43354E0FFE5A0541F4FF5A08D8022AC
:1008C300200065D20012092C8F4FE54C654FFF5570
:1008D3004FF54BE54FF45FF554854F4CE54B24FB47
:1008E300601624FD60231460302405703B0526E563
:1008F3002664047033F52622E5266401702A056414
:10090300E56464037022F56422E526B4021A055AED
:10091300E55AB46313E4F55A22E526B4020A155ADC
:09092300E55AB4FF03755A632282
:010E57002278
:1004F30030030302077BD203120AC08F588E578D35
:10050300568C55E4FFFE7D207C41AB58AA57A95673
:10051300A8551201161203738E528F53AC59E4126D
:10052300033FAB58AA57A956A8551202BC600F4007
:100533000DAF58AE57AD56AC551203738F59E53016
:10054300AE2F7802C333CE33CED8F9FDAC06E41216
:10055300033AE4FBFA7910784112021F7B1C7AC735
:10056300793178411200251203738E218F22D3E54E
:1005730022953EE521953D400685213D85223EE5B8
:10058300267048E52375F00A8475F00A8485F03FE8
:10059300E52375F00A8485F040754110E52475F074
:1005A3000A8475F00A8485F042E52475F00A84858F
:1005B300F043754410E52575F00A8475F00A8485C7
:1005C300F045E52575F00A8485F046E5266401606B
:1005D300030206F1E5647057753F0C754011E55948
:1005E30075F00A8475F00A8485F041E55975F00ABF
:1005F3008485F042754310AE52AF537C007D641284
:1006030004907C007D0A1204908D44AE52AF537C5B
:10061300007D0A1204907C007D0A1204908D4575BA
:100623002D01AE52AF537C007D0A1204908D46E536
:100633006464017068753F12754011AE3DAF3EFCB6
:100643007D641204907C007D0A1204908D41AE3DBE
:10065300AF3E7C007D0A1204907C007D0A12049058
:100663008D42754310AE21AF227C007D641204904D
:100673007C007D0A1204908D44AE21AF227C007D64
:100683000A1204907C007D0A1204908D45752D0199
:10069300AE21AF227C007D0A1204908D46E564648E
:1006A30002704B753F0FE55175F00A8475F00A84AB
:1006B30085F040E55175F00A8485F041E54775F012
:1006C3000A8475F00A8485F042E54775F00A84854B
:1006D300F043754410E54875F00A8475F00A848583
:1006E300F045E4F52DE54875F00A8485F046E526E6
:1006F300B40232753F13754011754111754211757E
:100703004311754411E55A75F00A1203F4FF75F0AD
:100713000A1203F485F045E4F52DE55A75F00A1243
:1007230003F485F046E5266403704D753F0E75406E
:1007330011754111AE52AF53FC7D0A1204907C0037
:100743007D0A1204908D42AE52AF537C007D0A1293
:1007530004908D43754410AE21AF227C007D0A12B4
:1007630004907C007D0A1204908D45AE21AF227C5B
:09077300007D0A1204908D46225B
:100DDB00538E7F5389F0438905E4F58AF58CC28DD8
:030DEB00D28C2285
:100D9D00538EBF53890F758B18758DFCC28FD28EF4
:050DAD00D2ABD2AF2221
:03001B0002077C5D
:10077C00C0E0C0F0C083C082C0D075D000C000C043
:10078C0001C002C003C004C005C006C007054AE58D
:10079C004A70020549FFAE49BE010BBF900875496E
:1007AC0000754A00C203AE49AF4A7C007D0A1204B0
:1007BC0090ED4C7002C200300208054EE54E7002FE
:1007CC00054D053CE53C7002053BFFAE3BBE0319F5
:1007DC00BFE816753B00753C00AF8CEFAD8AF52F6A
:1007EC00EDF530758C00758A00E54A5407FBFF2443
:1007FC003FF8E6FD7C0074272BF8E6FB7A00120A22
:10080C000CE54A5407FF245CF8E6FD7C00120A4D07
:10081C00D007D006D005D004D003D002D001D00030
:0B082C00D0D0D082D083D0F0D0E032DA
:100C0F00120CFF120DDB120D9D7B007A007923125F
:100C1F00097D7B007A007923120B291208C3120475
:060C2F00F3120E5780ECE9
:100DEE00E4FEC297EF1392A3EFC313FFD2970EBE8A
:020DFE0008F0FB
:010E000022CF
:100DC700C29300C29700D29300120DEEAF05120D29
:040DD700EEC29322B3
:100AF500E4FDC29300C29700D29300120DEEE4FF0D
:100B0500C297EDC313FD30A303430580D2970FBFF2
:100B150008EEC29300C29700D29700C2A300D2A3E9
:030B250000AF0519
:010B280022AA
:06097D008B188A19891A8B
:10098300E4FD7F8E120DC7E4FCEC25E0FFC3748405
:100993009FFFAB18AA19A91A8C8275830012042F22
:1009A300FE75F00A8475F00A84ADF0EDC454F0FDD1
:1009B300EE75F00A84E5F04DFD120DC70CBC03C9BA
:0709C3007D807F8E020DC74D
:060B29008B188A19891ADD
:100B2F00E4FCEC25E0FFC374859FFF120AF5EFC4C8
:100B3F00540F75F00AA4FEEF540F2EAB18AA19A983
:0D0B4F001A8C8275830012046E0CBC03D555
:010B5C002276
:040D3800D2A07F0ABC
:100D3C00000000000000000000000000000000AEF9
:060D4C00071FEE70EB2210
:0F0E2200D2A1120D38C2A17F0A120D3CC2A0222C
:0C0E3100C2A1120D38D2A17F0A020D3CB4
:020BBC00AD0783
:100BBE00E4FCC2A07F0A120D3CED30E704D2A18006
:100BCE0002C2A17F0A120D3CD2A0ED25E0FD7F0AE4
:090BDE00120D3C0CBC08DBC2A0A6
:010BE70022EB
:100CE200E4FC120D38ED25E0FD30A103430501C2FD
:0C0CF200A07F0A120D3C0CBC08E8AF0506
:010CFE0022D3
:100C5A00AB05120E227FA0120BBC120C6CAF031252
:020C6A000BBCC1
:100C6C00120D38A2A1E433FDC2A07F0A120D3CAFD5
:010C7C000572
:010C7D002254
:10000300C2A0EF24FF92A17F0A120D3C120D38C249
:08001300A0D2A17F0A020D3CFE
:020C3500AB070B
:100C3700120E227F90120C61120E227F91120BBCB2
:100C4700120C6C120CE2AD077F01120003120E3179
:020C5700AF05E7
:010C59002278
:100DB200AB07120E227F90120BBC120C6C7F4112F9
:050DC2000C61020E317E
:100B5D008B0E8A0F8910120C5AAF121512EF601FEF
:100B6D00AB0E0510E510AA0F7002050F14F9120453
:100B7D0016FF120BBC120C6C7FC8120D3C80DA02F2
:020B8D000E3127
:1009CA008B138A148915120C5A120E227FA1120B4C
:1009DA00BC120C6CAF171517EF6024120CE2AB13A4
:1009EA000515E515AA147002051414F9EF12045C32
:1009FA00E5176004E4FF80027F0112000380D5023C
:020A0A000E31AB
:040D52007F057E009B
:100D5600EF1FAA0670011E4A600BE4FDEDC3940C5A
:050D660050EE0D80F7C6
:010D6B002265
:020CC400A9077E
:100CC600E4FBC294E9139294120D52D294E9C31331
:0C0CD600F90BBB08ED7F057E00020D56F7
:100D6C00E4FBC294ECC313FCD29430940343048090
:090D7C00120D520BBB08EBAF0491
:010D8500224B
:100BE800C204D2947F0C7E00120D56C2947F507EB0
:100BF80000120D56D2947F0A7E00120D56A29492CE
:060C080004120D52A204CB
:010C0E0022C3
:100AC000120BE87FCC120CC47F44120CC4120BE84A
:100AD0007FCC120CC47FBE120CC4120D6CA907127D
:100AE0000D6CEFAD01FCE412033AE4FBFA79807877
:040AF0004112021F8E
:010AF40022DF
:100CFF007580FFE5A0541F4480F5A053A01FE4F5B5
:0D0D0F0080E5A0541F44A0F5A053A01F22B2
:10092C00E4FFC2C4D2C2D2B520B0027F0720B1020C
:10093C007F0620B2027F0520B3027F04D2C4C2C25C
:10094C00D2B520B0027F0B20B1027F0A20B2027F09
:10095C000920B3027F08D2C4D2C2C2B520B0027F34
:10096C000F20B1027F0E20B2027F0D20B3027F0C4C
:01097C002258
:100A4D00ED4C600F7401A807088002C333D8FC4237
:100A5D0008800E7401A807088002C333D8FCF45235
:100A6D0008E50865096013E508F4F580E5A0541F55
:0A0A7D004480F5A053A01F8508096E
:010A8700224C
:100C7E00EF6005430A108003530AEFE50A650B6027
:100C8E0011850A80E5A0541F44A0F5A053A01F852E
:020C9E000A0B3F
:010CA0002231
:100CA100EF6005430C408003530CBFE50C650D60FC
:100CB10011850C80E5A0541F44A0F5A053A01F8509
:020CC1000C0D18
:010CC300220E
:100D1C00C0F9A4B0999282F880908883C6A1868E7F
:0C0D2C00BFFF898C0102040810204080E9
:100A0C007580FFE5A0541F44E0F5A053A01FEF90A4
:100A1C000D3093F580E5A0541F44C0F5A053A01FE2
:100A2C00741C2DF582740D3CF583E493F580EB4A30
:100A3C00600353807FE5A0541F44E0F5A053A01F32
:010A4C002287
:100D8600759850438E01438E0475D7C775D6FE43BA
:070D96008E10D2ACD2AF2297
:080E48008F993099FDC2992237
:060E500000007F21DFFE1F
:010E56002279
:100E0100E4FED290120E50C290120E500EBE08F2A5
:010E110022BE
:100A8800E4F5D9F5E9F5F9120E01D2DE309103301B
:100A9800DFFAC2DE20DF1CAFF9EFFEADE9EDFFACF7
:100AA80006E412033A7B967A43798B783C12011656
:070AB800020373C2DF7F009F
:010ABF002214
:10001E000203DFE86480F8E933E83360110460F02E
:10002E00ED33EC337009E8FCE9FDEAFEEBFF220448
:10003E0060DED3EB9FEA9EE99DE8C2E78CF0C2F743
:10004E0095F0400CE8CCF8E9CDF9EACEFAEBCFFB0F
:10005E001203AA85D0F05804700320D5B3E80470BB
:10006E00075002B2D50203E992D5EC0460F7E4CC56
:10007E00C0E0C398F8603B94186008400DD0E0FBD8
:10008E000203C1E4FBFAC9FC8028E830E406E4C9A7
:10009E00FBE4CAFCE830E305E4C9CACBFCE854072C
:1000AE006010F8C3E913F9EA13FAEB13FBEC13FC37
:1000BE00D8F130F52FC3E49CFCEF9BFFEE9AFEEDDA
:1000CE0099FDD0E0FBEF4E4D4C701222DB03020384
:1000DE00E6EC2CFCEF33FFEE33FEED33FDED30E7B7
:1000EE00EB0203C1EF2BFFEE3AFEED39FDD0E0FB44
:1000FE0050130BBB00030203E9ED13FDEE13FEEFED
:08010E0013FFEC13FC0203C116
:10011600EC4D6011E8497017ED33EC3304600DE4E3
:10012600FCFFFEFD22E933E8330470F80203DF1218
:1001360003AA58046009E4CC248150062850090219
:1001460003E92840030203E6C0E0EB4A7044B980A5
:1001560006D0E0FB0203D5EF4E701CBD8008EBFF16
:10016600EAFEE9FD80EBE98DF0A4FEE5F00201FF71
:10017600E9CDF9EAFEEBFFEF89F0A4FCE5F0CE89C4
:10018600F0A42EFFE435F0CD89F0A42DFEE435F081
:100196008067EF4E7005BD80D780C3EF8BF0A4ACAF
:1001A600F0EE8BF0A42CFCE435F0F8EF8AF0A42CEA
:1001B600E5F038FCE433CB8DF0A42CFCE5F03BF8FD
:1001C600EE8AF0A42CFCE5F038F8E433CF89F0A4ED
:1001D6002CFCE5F038CF3400CE89F0A42FFFE5F0F3
:1001E6003EFEE433C98DF0A42EFEE5F039CD8AF04B
:1001F600A42FFFE5F03EFEE43DFD33D0E0FB5007C3
:100206000BBB000F0203E9EC2CFCEF33FFEE33FED1
:06021600ED33FD0203C1FF
:10021C000203E9EC5D046005E8590470030203DF96
:10022C001203AA580460F6EC4860F2EC7004FDFE70
:10023C00FF22C860DB2481C85009C39860025006B5
:10024C000203E69850CAF582E9294B4A7005AB8245
:10025C000203D575F0007C1A7880C3EF9BEE9AED03
:10026C0099400DC3EF9BFFEE9AFEED99FDE842F02D
:10027C00DC23ACF0D0E0FFD0E0FED0E0FDAB822080
:10028C00E7101BEB60BAEC2CFCEF33FFEE33FEED0A
:10029C0033FD0203C1E803F830E705C0F075F00048
:1002AC00EF2FFFEE33FEED33FD40B830E7C280AAEE
:1002BC0074F8CC6480CCC86480C8F58204604FC3E9
:1002CC00EB9FF5F0EA9E42F0E99D42F0E89C45F088
:1002DC00603C501DE5825FFFE582D313CB5BCBF412
:1002EC002B5582FB50280ABA002409B9002008803B
:1002FC001DE5825BFBE582D313CF5FCFF4C3132FD5
:10030C005582FF50090EBE00050DBD00010CC3EB5C
:10031C009FF5F0EA9E42F0E99D42F0E89C45F060C2
:09032C0007CC4820E701B3EC22E4
:1003350075F020800E75F010800575F0087D007E43
:10034500007F003392D530D5031204E5EC3340101D
:10035500EF33FFEE33FEED33FDEC33FCD5F0ED224C
:0E036500E5F0247EA2D513CC92E7CDCEFF2288
:10037300EDD2E7CD33EC3392D524814006E4FFFE82
:10038300FDFC22FCE4CFCECDCC24E0501174FF80E1
:10039300EDC3CC13CCCD13CDCE13CECF13CF04707E
:0703A300F030D5DE0204E595
:1003AA00E9D2E7C933E833F892D5EDD2E7CD33EC99
:0703BA0033FC5002B2D52212
:1003C100EC30E7100FBF000C0EBE00080DBD00049D
:1003D1000BEB6014A2D5EB13FCED92E7FD2274FF49
:1003E100FCFDFEFF22E480F8A2D574FF13FC7D80A2
:0303F100E480EFB6
:03000000020837BC
:0C083700787FE4F6D8FD75816402087E2D
:1003F400C2D530F707B2D563F0FF05F030E70CB291
:10040400D5F4048463F0FF05F080018430D502F450
:020414000422C0
:10041600BB010689828A83E0225002E722BBFE02E4
:09042600E32289828A83E4932217
:10042F00BB010CE58229F582E5833AF583E0225082
:10043F0006E92582F8E622BBFE06E92582F8E222CC
:0D044F00E58229F582E5833AF583E49322E6
:10045C00BB010689828A83F0225002F722BBFE017F
:02046C00F32279
:10046E00F8BB010DE58229F582E5833AF583E8F0C4
:10047E00225006E92582C8F622BBFE05E92582C870
:02048E00F22258
:10049000BC000BBE0029EF8DF084FFADF022E4CC50
:1004A000F875F008EF2FFFEE33FEEC33FCEE9DEC19
:1004B000984005FCEE9DFE0FD5F0E9E4CEFD22ED5F
:1004C000F8F5F0EE8420D21CFEADF075F008EF2FA9
:1004D000FFED33FD4007985006D5F0F222C398FD9A
:0504E0000FD5F0EA2237
:0E04E500C3E49FFFE49EFEE49DFDE49CFC2228
:10084300020C0FE493A3F8E493A34003F68001F2B0
:1008530008DFF48029E493A3F85407240CC8C333B6
:10086300C4540F4420C8834004F456800146F6DF85
:10087300E4800B0102040810204080900B8FE47E7B
:10088300019360BCA3FF543F30E509541FFEE4937A
:10089300A360010ECF54C025E060A840B8E493A341
:1008A300FAE493A3F8E493A3C8C582C8CAC583CA6C
:1008B300F0A3C8C582C8CAC583CADFE9DEE780BE24
:010BBB000039
:00000001FF
