:100ACE00083B111111111111111108240000000021
:100ADE0000000000085B0000000000000000032181
:0C0AEE000B0C0D014A00015919012C19D4
:0B0D1D00EF1FAC0670011E4C70F622A8
:100CF200EFC43354E0FFE5A0541F4FF5A08D8022CE
:10082400200068D2001207B18F49E5466549FF559B
:1008340049F545E549F45FF550854946E54524FB0E
:10084400603F24FD601B1460292405703E0563E5A8
:1008540063B40303E4F563E5636402702E85592CE5
:1008640022E563640170241559E559B4FF1DE4F5CC
:100874005922E563B401140559E559700E7559FF01
:0C08840022054AE54AB40203E4F54A22CA
:100A3B00E54A70047F0180027F008F5BE5637004E1
:100A4B007F0180027F008F5CE563B401047F01802E
:100A5B00027F008F5DE563B402047F0180027F009B
:030A6B008F5E2279
:1004D1003002030205B6D202120AA08F548E538D48
:1004E100528C51E4FFFE7DC87C42AB54AA53A95201
:1004F100A8511201161203738E4E8F4FE563704B94
:10050100753B0C7C037DE812046E7C007D0A1204AD
:100511006E8D3FAE4EAF4F7C007D6412046E7C0049
:100521007D0A12046E8D40752901AE4EAF4F7C00DD
:100531007D0A12046E7C007D0A12046E8D41AE4E5E
:10054100AF4F7C007D0A12046E8D42E563B4012237
:10055100753B12753F11754011E4F529E55975F0A8
:100561000A8475F00A8485F041E55975F00A84859D
:10057100F042E5636402703D753B0A753F11AE4C74
:10058100AF4DFC7D6412046E7C007D0A12046E8DF9
:1005910040752901AE4CAF4D7C007D0A12046E7C82
:1005A100007D0A12046E8D41AE4CAF4D7C007D0A78
:0605B10012046E8D4222CF
:1005B700E54A7027AC2C12033FAB54AA53A952A8A3
:1005C700511202BCE4500AF558F557F556F5558017
:1005D7000AF558F55775567F755543E54A64016026
:1005E7000302066BFFFE7DA07C41AB54AA53A952C0
:1005F700A8511202BC6002500DE4F558F557755624
:100607004C755542805EE4FFFE7D207C42AB54AAC8
:1006170053A952A8511202BC600250277FCD7ECC4D
:100627007DF47C40AB54AA53A952A851120116E499
:10063700FBFA79CC78C21200258F588E578D568CCD
:10064700558021E4FFFE7D207C42AB54AA53A9527A
:10065700A8511202BC600D400BE4F558F5577556CA
:100667004C755543E4FFFE7DC87C42AB58AA57A999
:1006770056A855120116E4FBFA794C784212021F6C
:100687001203738E4C8F4DAF58AE57AD56AC551203
:050697000373020C9149
:100C7C00538EBF53890F758B18758DFCC28FD28E16
:050C8C00D2ABD2AF2243
:03001B00020728B1
:10072800C0E0C0F0C083C082C0D075D000C000C097
:1007380001C002C003C004C005C006C0070544E5E7
:100748004470020543FFAE43BE010BBF90087543DA
:1007580000754400C202AE43AF447C007D0A120417
:100768006EED4C7002C200E5445407FBFF243BF8D1
:10077800E6FD7C0074242BF8E6FB7A0012091FE5DD
:10078800445407FF245BF8E6FD7C00120960D0079B
:10079800D006D005D004D003D002D001D000D0D0EC
:0907A800D082D083D0F0D0E03201
:100BBC00120BF6120C7C7B007A0079211208901231
:0D0BCC0008241204D1120A3B1205B780F272
:100CCE00E4FEC297EF1392A3EFC313FFD2970EBEAB
:020CDE0008F01C
:010CE00022F1
:100CA600C29300C29700D29300120CCEAF05120C6D
:040CB600CEC29322F5
:1009D300E4FDC29300C29700D29300120CCEE4FF51
:1009E300C297EDC313FD30A303430580D2970FBF16
:1009F30008EEC29300C29700D29700C2A300D2A30D
:030A030000AF053C
:010A060022CD
:060890008B158A16891782
:10089600E4FD7F8E120CA6E4FCEC25E0FFC3748415
:1008A6009FFFAB15AA16A9178C8275830012040D3B
:1008B600FE75F00A8475F00A84ADF0EDC454F0FDBF
:1008C600EE75F00A84E5F04DFD120CA60CBC03C9CA
:0708D6007D807F8E020CA65D
:060A07008B128A13891412
:100A0D00E4FCEC25E0FFC374859FFF1209D3EFC40E
:100A1D00540F75F00AA4FEEF540F2EAB12AA13A9B2
:0D0A2D00148C8275830012044C0CBC03D5A0
:010A3A002299
:040C2E00D2A07F0AC7
:100C3200000000000000000000000000000000AE04
:060C4200071FEE70EB221B
:0F0D0200D2A1120C2EC2A17F0A120C32C2A02263
:0C0D1100C2A1120C2ED2A17F0A020C32EB
:020AFB00AD0745
:100AFD00E4FCC2A07F0A120C32ED30E704D2A180D3
:100B0D0002C2A17F0A120C32D2A0ED25E0FD7F0AB0
:090B1D00120C320CBC08DBC2A072
:010B260022AC
:100BD900E4FC120C2EED25E0FD30A103430501C212
:0C0BE900A07F0A120C320CBC08E8AF051B
:010BF50022DD
:100B9800AB05120D027FA0120AFB120BAAAF0312BB
:020BA8000AFB46
:100BAA00120C2EA2A1E433FDC2A07F0A120C32AFAE
:010BBA000535
:010BBB002217
:10000300C2A0EF24FF92A17F0A120C32120C2EC25F
:08001300A0D2A17F0A020C3209
:020B4E00AB07F3
:100B5000120D027F90120B9F120D027F91120AFB61
:100B6000120BAA120BD9AD077F01120003120D114F
:020B7000AF05CF
:010B72002260
:100C9100AB07120D027F90120AFB120BAA7F4112C1
:050CA1000B9F020D1184
:100A6E008B088A09890A120B98AF0C150CEF601FC0
:100A7E00AB08050AE50AAA097002050914F9120362
:100A8E00F4FF120AFB120BAA7FC8120C3280DA0294
:020A9E000D1138
:1008DD008B0D8A0E890F120B98120D027FA1120A31
:1008ED00FB120BAAAF111511EF6024120BD9AB0D32
:1008FD00050FE50FAA0E7002050E14F9EF12043A5A
:10090D00E5116004E4FF80027F0112000380D5022F
:02091D000D11BA
:040C48007F057E00A6
:100C4C00EF1FAA0670011E4A600BE4FDEDC3940C65
:050C5C0050EE0D80F7D1
:010C61002270
:070B73007FCC120B7A7F44D6
:020B7A00A907C9
:100B7C00E4FBC294E9139294120C48D294E9C31387
:0C0B8C00F90BBB08ED7F057E00020C4C4D
:100C6200E4FBC294ECC313FCD2943094034304809B
:090C7200120C480BBB08EBAF04A7
:010C7B002256
:100B2700C203D2947F0C7E00120C4CC2947F507E7D
:100B370000120C4CD2947F0A7E00120C4CA29492A5
:060B470003120C48A2039A
:010B4D002285
:100CBA00120B27120B73E4FC7F107E27120C4C0CCC
:030CCA00BC08F56E
:010CCD002204
:100AA000120B27120B73120B277FCC120B7A7FBE0F
:100AB000120B7A120C62A907120C62EFAD01FCE472
:0D0AC00012033AE4FBFA7980784112021F1C
:010ACD002206
:100BF6007580FFE5A0541F4480F5A053A01FE4F5BF
:0D0C060080E5A0541F44A0F5A053A01F22BC
:1007B100E4FFC2C4D2C2D2B5D2B420B0027F0720B6
:1007C100B1027F0620B2027F0520B3027F04D2C4AA
:1007D100C2C2D2B5D2B420B0027F0B20B1027F0ACF
:1007E10020B2027F0920B3027F08D2C4D2C2C2B5AF
:1007F100D2B420B0027F0F20B1027F0E20B2027F5F
:100801000D20B3027F0CD2C4D2C2D2B5C2B420B083
:10081100027F1320B1027F1220B2027F1120B302A6
:020821007F1046
:0108230022B2
:10096000ED4C600F7401A807088002C333D8FC4225
:1009700018800E7401A807088002C333D8FCF45213
:1009800018E51865196013E518F4F580E5A0541F03
:0A0990004480F5A053A01F8518193C
:01099A00223A
:100C1300C0F9A4B0999282F880908883C6A1868E89
:0B0C230040FF8C0102040810204080FC
:10091F007580FFE5A0541F44E0F5A053A01FEF9092
:10092F000C2693F580E5A0541F44C0F5A053A01FDB
:10093F0074132DF582740C3CF583E493F580EB4A28
:10094F00600353807FE5A0541F44E0F5A053A01F20
:01095F002275
:060D280000007F21DFFE48
:010D2E0022A2
:100CE100E4FED290120D28C290120D280EBE08F219
:010CF10022E0
:10099B00E4F5D9F5E9F5F9120CE1D2DE309103302B
:1009AB00DFFAC2DE20DF1CAFF9EFFEADE9EDFFACE5
:1009BB0006E412033A7B967A43798B783C12011644
:0709CB00020373C2DF7F008D
:0109D2002202
:10001E000203DFE86480F8E933E83360110460F02E
:10002E00ED33EC337009E8FCE9FDEAFEEBFF220448
:10003E0060DED3EB9FEA9EE99DE8C2E78CF0C2F743
:10004E0095F0400CE8CCF8E9CDF9EACEFAEBCFFB0F
:10005E001203AA85D0F05804700320D5B3E80470BB
:10006E00075002B2D50203E992D5EC0460F7E4CC56
:10007E00C0E0C398F8603B94186008400DD0E0FBD8
:10008E000203C1E4FBFAC9FC8028E830E406E4C9A7
:10009E00FBE4CAFCE830E305E4C9CACBFCE854072C
:1000AE006010F8C3E913F9EA13FAEB13FBEC13FC37
:1000BE00D8F130F52FC3E49CFCEF9BFFEE9AFEEDDA
:1000CE0099FDD0E0FBEF4E4D4C701222DB03020384
:1000DE00E6EC2CFCEF33FFEE33FEED33FDED30E7B7
:1000EE00EB0203C1EF2BFFEE3AFEED39FDD0E0FB44
:1000FE0050130BBB00030203E9ED13FDEE13FEEFED
:08010E0013FFEC13FC0203C116
:10011600EC4D6011E8497017ED33EC3304600DE4E3
:10012600FCFFFEFD22E933E8330470F80203DF1218
:1001360003AA58046009E4CC248150062850090219
:1001460003E92840030203E6C0E0EB4A7044B980A5
:1001560006D0E0FB0203D5EF4E701CBD8008EBFF16
:10016600EAFEE9FD80EBE98DF0A4FEE5F00201FF71
:10017600E9CDF9EAFEEBFFEF89F0A4FCE5F0CE89C4
:10018600F0A42EFFE435F0CD89F0A42DFEE435F081
:100196008067EF4E7005BD80D780C3EF8BF0A4ACAF
:1001A600F0EE8BF0A42CFCE435F0F8EF8AF0A42CEA
:1001B600E5F038FCE433CB8DF0A42CFCE5F03BF8FD
:1001C600EE8AF0A42CFCE5F038F8E433CF89F0A4ED
:1001D6002CFCE5F038CF3400CE89F0A42FFFE5F0F3
:1001E6003EFEE433C98DF0A42EFEE5F039CD8AF04B
:1001F600A42FFFE5F03EFEE43DFD33D0E0FB5007C3
:100206000BBB000F0203E9EC2CFCEF33FFEE33FED1
:06021600ED33FD0203C1FF
:10021C000203E9EC5D046005E8590470030203DF96
:10022C001203AA580460F6EC4860F2EC7004FDFE70
:10023C00FF22C860DB2481C85009C39860025006B5
:10024C000203E69850CAF582E9294B4A7005AB8245
:10025C000203D575F0007C1A7880C3EF9BEE9AED03
:10026C0099400DC3EF9BFFEE9AFEED99FDE842F02D
:10027C00DC23ACF0D0E0FFD0E0FED0E0FDAB822080
:10028C00E7101BEB60BAEC2CFCEF33FFEE33FEED0A
:10029C0033FD0203C1E803F830E705C0F075F00048
:1002AC00EF2FFFEE33FEED33FD40B830E7C280AAEE
:1002BC0074F8CC6480CCC86480C8F58204604FC3E9
:1002CC00EB9FF5F0EA9E42F0E99D42F0E89C45F088
:1002DC00603C501DE5825FFFE582D313CB5BCBF412
:1002EC002B5582FB50280ABA002409B9002008803B
:1002FC001DE5825BFBE582D313CF5FCFF4C3132FD5
:10030C005582FF50090EBE00050DBD00010CC3EB5C
:10031C009FF5F0EA9E42F0E99D42F0E89C45F060C2
:09032C0007CC4820E701B3EC22E4
:1003350075F020800E75F010800575F0087D007E43
:10034500007F003392D530D5031204C3EC3340103F
:10035500EF33FFEE33FEED33FDEC33FCD5F0ED224C
:0E036500E5F0247EA2D513CC92E7CDCEFF2288
:10037300EDD2E7CD33EC3392D524814006E4FFFE82
:10038300FDFC22FCE4CFCECDCC24E0501174FF80E1
:10039300EDC3CC13CCCD13CDCE13CECF13CF04707E
:0703A300F030D5DE0204C3B7
:1003AA00E9D2E7C933E833F892D5EDD2E7CD33EC99
:0703BA0033FC5002B2D52212
:1003C100EC30E7100FBF000C0EBE00080DBD00049D
:1003D1000BEB6014A2D5EB13FCED92E7FD2274FF49
:1003E100FCFDFEFF22E480F8A2D574FF13FC7D80A2
:0303F100E480EFB6
:0300000002069C59
:0C069C00787FE4F6D8FD7581630206E368
:1003F400BB010689828A83E0225002E722BBFE0207
:09040400E32289828A83E4932239
:10040D00BB010CE58229F582E5833AF583E02250A4
:10041D0006E92582F8E622BBFE06E92582F8E222EE
:0D042D00E58229F582E5833AF583E4932208
:10043A00BB010689828A83F0225002F722BBFE01A1
:02044A00F3229B
:10044C00F8BB010DE58229F582E5833AF583E8F0E6
:10045C00225006E92582C8F622BBFE05E92582C892
:02046C00F2227A
:10046E00BC000BBE0029EF8DF084FFADF022E4CC72
:10047E00F875F008EF2FFFEE33FEEC33FCEE9DEC3B
:10048E00984005FCEE9DFE0FD5F0E9E4CEFD22ED81
:10049E00F8F5F0EE8420D21CFEADF075F008EF2FCB
:1004AE00FFED33FD4007985006D5F0F222C398FDBC
:0504BE000FD5F0EA2259
:0E04C300C3E49FFFE49EFEE49DFDE49CFC224A
:1006A800020BBCE493A3F8E493A34003F68001F2A1
:1006B80008DFF48029E493A3F85407240CC8C33353
:1006C800C4540F4420C8834004F456800146F6DF22
:1006D800E4800B0102040810204080900ACEE47EDA
:1006E800019360BCA3FF543F30E509541FFEE49317
:1006F800A360010ECF54C025E060A840B8E493A3DE
:10070800FAE493A3F8E493A3C8C582C8CAC583CA08
:10071800F0A3C8C582C8CAC583CADFE9DEE780BEC0
:010AFA0000FB
:00000001FF
