:1009C00008221111111111111111087200000000FB
:1009D00000000000035B0B0C0D012E00013D19010E
:0209E0002119DB
:10085200E52CC3940A4069E4F52C1208C38F2DE5F8
:100862002B652DFF552DF52AE52DF45FF534852DE9
:100872002BE52A24FB603F24FD601B14602924051C
:10088200703E053EE53EB40303E4F53EE53E6402F8
:10089200702E853D2122E53E64017024153DE53D23
:1008A200B4FF1DE4F53D22E53EB40114053DE53DEE
:1008B200700E753DFF22052EE52EB40203E4F52EDF
:0108C2002213
:1005CC00C3786DE694F418E6940150030206BBE47C
:1005DC00786CF608F6120B868F388E378D368C3584
:1005EC00E4FFFE7DC87C42AB38AA37A936A8351289
:1005FC0001161203738E328F33E53E704B75220C4D
:10060C007C037DE812046E7C007D0A12046E8D263C
:10061C00AE32AF337C007D6412046E7C007D0A1216
:10062C00046EED242CF527AE32AF337C007D0A121C
:10063C00046E7C007D0A12046E8D28AE32AF337CC2
:10064C00007D0A12046E8D29E53EB4011F7522123D
:10065C00752611752711E53D75F00A8475F00A842D
:10066C0085F028E53D75F00A8485F029E53E6402A5
:10067C00703D75220A752611AE30AF31FC7D6412C7
:10068C00046E7C007D0A12046EED242CF527AE302E
:10069C00AF317C007D0A12046E7C007D0A12046E60
:1006AC008D28AE30AF317C007D0A12046E8D29226C
:1004D100C37870E6942C18E6940150030205CBE42E
:1004E100786FF608F6E52E7027AC2112033FAB3882
:1004F100AA37A936A8351202BCE4500AF53CF53BEF
:10050100F53AF539800AF53CF53B753A7F75394383
:10051100E52E6401600302059AFFFE7DA07C41ABDC
:1005210038AA37A936A8351202BC6002500DE4F58D
:100531003CF53B753A4C753942805EE4FFFE7D2007
:100541007C42AB38AA37A936A8351202BC600250EA
:10055100277FCD7ECC7DF47C40AB38AA37A936A865
:1005610035120116E4FBFA79CC78C21200258F3CD2
:100571008E3B8D3A8C398021E4FFFE7D207C42AB9D
:1005810038AA37A936A8351202BC600D400BE4F534
:100591003CF53B753A4C753943E4FFFE7DC87C421E
:1005A100AB3CAA3BA93AA839120116E4FBFA794CF3
:1005B100784212021F1203738E308F31AF3CAE3B73
:0B05C100AD3AAC39120373120D5A2240
:100ADF00E52E70047F0180027F007872A607E53E45
:100AEF0070047F0180027F007873A607E53EB40192
:100AFF00047F0180027F007874A607E53EB40204EC
:0B0B0F007F0180027F007875A607229E
:100DDD00538EBF53890F758B18758DFCC28FD28EB4
:050DED00D2ABD2AF22E1
:03001B0002074891
:10074800C0E0C0F0C083C082C0D075D000C000C077
:1007580001C002C003C004C005C006C007052C784C
:100768006D06E618700106787006E6187001060531
:100778002FE52FB40803752F007422252FF8E6FF04
:10078800D39414400EEF24D4FDE434FFFC7B017AAB
:1007980000800C7422252FF8E6FD7C00E4FBFAAFFC
:1007A8002F120A0E7B007A0079721207D0D007D078
:1007B80006D005D004D003D002D001D000D0D0D0CC
:0807C80082D083D0F0D0E032B2
:100D2000120C8B120DDD7B007A00795B12091D120B
:0D0D300008521205CC120ADF1204D180F225
:100E2F00E4FEC297EF1392A3EFC313FFD2970EBE48
:020E3F0008F0B9
:010E4100228E
:100E0700C29300C29700D29300120E2FAF05120EA5
:040E17002FC2932231
:100B5200E4FDC29300C29700D29300120E2FE4FF6D
:100B6200C297EDC313FD30A303430580D2970FBF95
:100B720008EEC29300C29700D29700C2A300D2A38C
:030B820000AF05BC
:010B8500224D
:06091D008B188A19891AEB
:10092300E4FD7F8E120E077D807F80120E07E4FCAC
:10093300EC25E0FFC374849FFFAB18AA19A91A8C96
:100943008275830012040DFE75F00A8475F00A8423
:10095300ADF0EDC454F0FDEE75F00A84E5F04DFD05
:0E096300120E070CBC03C97D807F8E020E07AA
:060971008B088A09890AC7
:10097700C2AFE4F50BE50B25E0FFC374859FFF12BB
:100987000B52750C008F0DE50CC4F854F0C8E50D3B
:10099700C4540F4875F00AA4FFE50D540F2FAB0898
:1009A700AA09A90A850B8275830012044C050BE579
:0809B7000BC3940340BFD2AF53
:0109BF002215
:040D7700D2A07F0582
:100D7B00000000000000000000000000000000AEBA
:060D8B00071FEE70EB22D1
:0F0E4200D2A1120D77C2A17F05120D7BC2A02293
:0C0E5100C2A1120D77D2A17F05020D7B1B
:020BB400AD078B
:100BB600E4FCC2A07F05120D7BED30E704D2A180D4
:100BC60002C2A17F05120D7BD2A0ED25E0FD7F05B7
:090BD600120D7B0CBC08DBC2A06F
:010BDF0022F3
:100D3D00E4FC120D77ED25E0FD30A103430501C262
:0C0D4D00A07F05120D7B0CBC08E8AF0570
:010D59002277
:100CFC00AB05120E427FA0120BB4120D0EAF0312F5
:020D0C000BB426
:100D0E00120D77A2A1E433FDC2A07F05120D7BAFB9
:010D1E0005CF
:010D1F0022B1
:10000300C2A0EF24FF92A17F05120D7B120D77C2D0
:08001300A0D2A17F05020D7BC4
:020CB200AB078E
:100CB400120E427F90120D03120E427F91120BB45A
:100CC400120D0E120D3DAD077F01120003120E51DD
:020CD400AF056A
:010CD60022FB
:100D5A00AB07120E427F90120BB4120D0E7F411296
:0D0D6A000BB4120D0EAF03120BB4020D0EF0
:100A57008B0E8A0F8910120CFCAF121512EF601F54
:100A6700AB0E0510E510AA0F7002050F14F912035B
:100A7700F4FF120BB4120D0E7FC8120D7B80DA1231
:100A87000E517FFF120D7B7FFF120D7B7FFF120D33
:060A97007B7FFF020D7BD6
:100A9D008B138A148915120CFC120E427FA1120BB6
:100AAD00B4120D0EAF171517EF6024120D3DAB13D9
:100ABD000515E515AA147002051414F9EF12043A80
:100ACD00E5176004E4FF80027F0112000380D50268
:020ADD000E51B8
:040D91007F057E005C
:100D9500EF1FAA0670011E4A600BE4FDEDC3940C1B
:050DA50050EE0D80F787
:010DAA002226
:070CD7007FCC120CDE7F440C
:020CDE00A90764
:100CE000E4FBC294E9139294120D91D294E9C313D8
:0C0CF000F90BBB08ED7F057E00020D959E
:100DAB00E4FBC294ECC313FCD29430940343048051
:090DBB00120D910BBB08EBAF0413
:010DC400220C
:100C6400C203D2947F0C7E00120D95C2947F507EF5
:100C740000120D95D2947F0A7E00120D95A29492D3
:060C840003120D91A20312
:010C8A002247
:100E1B00120C64120CD7E4FC7F107E27120D950C7C
:030E2B00BC08F50B
:010E2E0022A1
:100B8600120C64120CD7120C647FCC120CDE7FBEE2
:100B9600120CDE120DABA907120DABEFAD01FCE492
:0D0BA60012033AE4FBFA7980784112021F35
:010BB300221F
:100C8B007580FFE5A0541FFF4307808FA0E5A0549C
:100C9B001FF5A0E4F580E5A0541FFF4307A08FA02C
:060CAB00E5A0541FF5A0B6
:010CB1002220
:1008C300E4FF538EEFC2C4D2C2D2B520B3027F0479
:1008D30020B2027F0520B1027F0620B0027F07D23B
:1008E300C4C2C2D2B520B3027F0820B2027F09205E
:1008F300B1027F0A20B0027F0BD2C4D2C2C2B5209C
:10090300B3027F0C20B2027F0D20B1027F0E20B014
:09091300027F0F75B0FF438E1046
:01091C0022B8
:0C09E200011C00011EFF011B00011DFF95
:1007D000E4781CF690000112040D25E0FF1203F4EA
:1007E0004FFF90000212040D25E025E04FFF90001E
:1007F0000312040D33333354F84FFF9000041204F6
:100800000DC454F04FFF90000512040DC43354E0A2
:100810004FFF90000612040DC4333354C04FFF90B5
:10082000000712040DC433333354804FFF781CF695
:10083000781EE66F601B781CE6FFF4F580E5A05497
:100840001FFE4306808EA0E5A0541FF5A0781EA6CB
:0108500007A0
:010851002284
:100DC5007580FFE5A0541FFF4307808FA0E5A05461
:070DD5001FF5A0E4781EF6F3
:010DDC0022F4
:100BE000781BE63000054440F6800354BFF6781BBE
:100BF000E6FF781D6660148F80E5A0541FFE430653
:0B0C0000A08EA0E5A0541FF5A0A607E1
:010C0B0022C6
:100C0C00781BE63001054410F6800354EFF6781B90
:100C1C00E6FF781D6660148F80E5A0541FFE430626
:0B0C2C00A08EA0E5A0541FF5A0A607B5
:010C3700229A
:100C3800781BE63002054420F6800354DFF6781B63
:100C4800E6FF781D6660148F80E5A0541FFE4306FA
:0B0C5800A08EA0E5A0541FF5A0A60789
:010C6300226E
:1009EE00133FC0F9A4B0999282F880908883C6A173
:0F09FE00868E40FF8C08520102040810204080B2
:100A0E007580FFE5A0541FFE4306E08EA0E5A054BE
:100A1E001FF5A074522FF8E6F580E5A0541FFE4393
:100A2E0006C08EA0E5A0541FF5A0743F2DF8E6F584
:100A3E0080EB4A600353807FE5A0541FFE4306E01F
:080A4E008EA0E5A0541FF5A0E5
:010A5600227D
:060E5D0000007F26DFFE0D
:010E6300226C
:100DF200C2AFE4FED290120E5DC290120E5D0EBE24
:040E020008F2D2AF71
:010E060022C9
:100B1A00E4F5D9F5E9F5F9120DF2D2DE3091033098
:100B2A00DFFAC2DE20DF1CAFF9EFFEADE9EDFFAC64
:100B3A0006E412033A7B967A43798B783C120116C3
:070B4A00020373C2DF7F000C
:010B51002281
:10001E000203DFE86480F8E933E83360110460F02E
:10002E00ED33EC337009E8FCE9FDEAFEEBFF220448
:10003E0060DED3EB9FEA9EE99DE8C2E78CF0C2F743
:10004E0095F0400CE8CCF8E9CDF9EACEFAEBCFFB0F
:10005E001203AA85D0F05804700320D5B3E80470BB
:10006E00075002B2D50203E992D5EC0460F7E4CC56
:10007E00C0E0C398F8603B94186008400DD0E0FBD8
:10008E000203C1E4FBFAC9FC8028E830E406E4C9A7
:10009E00FBE4CAFCE830E305E4C9CACBFCE854072C
:1000AE006010F8C3E913F9EA13FAEB13FBEC13FC37
:1000BE00D8F130F52FC3E49CFCEF9BFFEE9AFEEDDA
:1000CE0099FDD0E0FBEF4E4D4C701222DB03020384
:1000DE00E6EC2CFCEF33FFEE33FEED33FDED30E7B7
:1000EE00EB0203C1EF2BFFEE3AFEED39FDD0E0FB44
:1000FE0050130BBB00030203E9ED13FDEE13FEEFED
:08010E0013FFEC13FC0203C116
:10011600EC4D6011E8497017ED33EC3304600DE4E3
:10012600FCFFFEFD22E933E8330470F80203DF1218
:1001360003AA58046009E4CC248150062850090219
:1001460003E92840030203E6C0E0EB4A7044B980A5
:1001560006D0E0FB0203D5EF4E701CBD8008EBFF16
:10016600EAFEE9FD80EBE98DF0A4FEE5F00201FF71
:10017600E9CDF9EAFEEBFFEF89F0A4FCE5F0CE89C4
:10018600F0A42EFFE435F0CD89F0A42DFEE435F081
:100196008067EF4E7005BD80D780C3EF8BF0A4ACAF
:1001A600F0EE8BF0A42CFCE435F0F8EF8AF0A42CEA
:1001B600E5F038FCE433CB8DF0A42CFCE5F03BF8FD
:1001C600EE8AF0A42CFCE5F038F8E433CF89F0A4ED
:1001D6002CFCE5F038CF3400CE89F0A42FFFE5F0F3
:1001E6003EFEE433C98DF0A42EFEE5F039CD8AF04B
:1001F600A42FFFE5F03EFEE43DFD33D0E0FB5007C3
:100206000BBB000F0203E9EC2CFCEF33FFEE33FED1
:06021600ED33FD0203C1FF
:10021C000203E9EC5D046005E8590470030203DF96
:10022C001203AA580460F6EC4860F2EC7004FDFE70
:10023C00FF22C860DB2481C85009C39860025006B5
:10024C000203E69850CAF582E9294B4A7005AB8245
:10025C000203D575F0007C1A7880C3EF9BEE9AED03
:10026C0099400DC3EF9BFFEE9AFEED99FDE842F02D
:10027C00DC23ACF0D0E0FFD0E0FED0E0FDAB822080
:10028C00E7101BEB60BAEC2CFCEF33FFEE33FEED0A
:10029C0033FD0203C1E803F830E705C0F075F00048
:1002AC00EF2FFFEE33FEED33FD40B830E7C280AAEE
:1002BC0074F8CC6480CCC86480C8F58204604FC3E9
:1002CC00EB9FF5F0EA9E42F0E99D42F0E89C45F088
:1002DC00603C501DE5825FFFE582D313CB5BCBF412
:1002EC002B5582FB50280ABA002409B9002008803B
:1002FC001DE5825BFBE582D313CF5FCFF4C3132FD5
:10030C005582FF50090EBE00050DBD00010CC3EB5C
:10031C009FF5F0EA9E42F0E99D42F0E89C45F060C2
:09032C0007CC4820E701B3EC22E4
:1003350075F020800E75F010800575F0087D007E43
:10034500007F003392D530D5031204C3EC3340103F
:10035500EF33FFEE33FEED33FDEC33FCD5F0ED224C
:0E036500E5F0247EA2D513CC92E7CDCEFF2288
:10037300EDD2E7CD33EC3392D524814006E4FFFE82
:10038300FDFC22FCE4CFCECDCC24E0501174FF80E1
:10039300EDC3CC13CCCD13CDCE13CECF13CF04707E
:0703A300F030D5DE0204C3B7
:1003AA00E9D2E7C933E833F892D5EDD2E7CD33EC99
:0703BA0033FC5002B2D52212
:1003C100EC30E7100FBF000C0EBE00080DBD00049D
:1003D1000BEB6014A2D5EB13FCED92E7FD2274FF49
:1003E100FCFDFEFF22E480F8A2D574FF13FC7D80A2
:0303F100E480EFB6
:030000000206BC39
:0C06BC00787FE4F6D8FD75817902070311
:1003F400BB010689828A83E0225002E722BBFE0207
:09040400E32289828A83E4932239
:10040D00BB010CE58229F582E5833AF583E02250A4
:10041D0006E92582F8E622BBFE06E92582F8E222EE
:0D042D00E58229F582E5833AF583E4932208
:10043A00BB010689828A83F0225002F722BBFE01A1
:02044A00F3229B
:10044C00F8BB010DE58229F582E5833AF583E8F0E6
:10045C00225006E92582C8F622BBFE05E92582C892
:02046C00F2227A
:10046E00BC000BBE0029EF8DF084FFADF022E4CC72
:10047E00F875F008EF2FFFEE33FEEC33FCEE9DEC3B
:10048E00984005FCEE9DFE0FD5F0E9E4CEFD22ED81
:10049E00F8F5F0EE8420D21CFEADF075F008EF2FCB
:1004AE00FFED33FD4007985006D5F0F222C398FDBC
:0504BE000FD5F0EA2259
:0E04C300C3E49FFFE49EFEE49DFDE49CFC224A
:1006C800020D20E493A3F8E493A34003F68001F21B
:1006D80008DFF48029E493A3F85407240CC8C33333
:1006E800C4540F4420C8834004F456800146F6DF02
:1006F800E4800B01020408102040809009C0E47EC9
:10070800019360BCA3FF543F30E509541FFEE493F6
:10071800A360010ECF54C025E060A840B8E493A3BD
:10072800FAE493A3F8E493A3C8C582C8CAC583CAE8
:10073800F0A3C8C582C8CAC583CADFE9DEE780BEA0
:010A0D0000E8
:00000001FF
