:10098800085B1111111111111111086A0000000002
:1009980000000000034A0B0C0D010D00011B19019A
:0209A80008192C
:1008C300E50BC3940A4069E4F50B12084A8F0CE563
:1008D3000A650CFF550CF509E50CF45FF512850C60
:1008E3000AE50924FB603F24FD601B1460292405ED
:1008F300703E051CE51CB40303E4F51CE51C64020F
:10090300702E851B0822E51C64017024151BE51B52
:10091300B4FF1DE4F51B22E51CB40114051BE51B04
:10092300700E751BFF22050DE50DB40203E4F50DF2
:0109330022A1
:1004D100C37864E694F418E6940150030205D5E468
:1004E1007863F608F6120AE98F168E158D148C13AF
:1004F100E4FFFE7DC87C42AB16AA15A914A813120D
:1005010001161203738E108F11E51C7057785B76FC
:100511000CAE10AF117C037DE812046E7C007D0AE5
:1005210012046E785FA605AE10AF117C007D6412D7
:10053100046E7C007D0A12046EED242C7860F6AE08
:1005410010AF117C007D0A12046E7C007D0A12043A
:100551006E7861A605AE10AF117C007D0A12046EA3
:100561007862A605E51CB40121785B7612785F7686
:1005710011087611E51B75F00A8475F00A8408A646
:10058100F0E51B75F00A8408A6F0E51C64027044CE
:10059100785B760A785F7611AE0EAF0FFC7D641240
:1005A100046E7C007D0A12046EED242C7860F6AE98
:1005B1000EAF0F7C007D0A12046E7C007D0A1204CE
:1005C1006E7861A605AE0EAF0F7C007D0A12046E37
:0505D1007862A605227E
:1005D600E50D7027AC0812033FAB16AA15A914A89F
:1005E600131202BCE4500AF51AF519F518F517802E
:1005F6000AF51AF51975187F751743E50D6401603C
:100606000302068AFFFE7DA07C41AB16AA15A9143B
:10061600A8131202BC6002500DE4F51AF5197518FC
:100626004C751742805EE4FFFE7D207C42AB16AA25
:1006360015A914A8131202BC600250277FCD7ECCE8
:100646007DF47C40AB16AA15A914A813120116E472
:10065600FBFA79CC78C21200258F1A8E198D188C68
:10066600178021E4FFFE7D207C42AB16AA15A91453
:10067600A8131202BC600D400BE4F51AF5197518A3
:100686004C751743E4FFFE7DC87C42AB1AAA19A934
:1006960018A817120116E4FBFA794C784212021FC9
:1006A6001203738E0E8F0FAF1AAE19AD18AC171258
:0506B6000373020DE6D4
:100B2500E50D70047F0180027F00786AA607E51C49
:100B350070047F0180027F00786BA607E51CB40175
:100B4500047F0180027F00786CA607E51CB40204CF
:0B0B55007F0180027F00786DA6072260
:100DD100538EBF53890F758B18758DFCC28FD28EC0
:050DE100D2ABD2AF22ED
:03001B000207C910
:1007C900C0E0C0F0C083C082C0D075D000C000C0F6
:1007D90001C002C003C004C005C006C007050B78EC
:1007E9006406E618700106786606E6B40802760023
:1007F9007866E6FF245BF8E6FED39414400EEE24F7
:10080900D4FDE434FFFC7B017A00800E7866E6FFB4
:10081900245BF8E6FD7C00E4FBFA1209D67B007A3A
:1008290000796A120747D007D006D005D004D00353
:10083900D002D001D000D0D0D082D083D0F0D0E087
:01084900327C
:100D3100120CA3120DD17B007A00794A12093412E8
:0D0D410008C3120B251204D11205D680F252
:100E2400E4FEC297EF1392A3EFC313FFD2970EBE53
:020E340008F0C4
:010E36002299
:100E1000C29300C29700D29300120E24AF05120EA7
:040E200024C2932233
:100B9800E4FDC29300C29700D29300120E24E4FF32
:100BA800C297EDC313FD30A303430580D2970FBF4F
:100BB80008EEC29300C29700D29700C2A300D2A346
:030BC80000AF0576
:010BCB002207
:060934008B468A4789484A
:10093A00E4FD7F8E120E107D807F80120E10E4FC83
:10094A00EC25E0FFC374849FFFAB46AA47A9488CF5
:10095A008275830012040DFE75F00A8475F00A840C
:10096A00ADF0EDC454F0FDEE75F00A84E5F04DFDEE
:0E097A00120E100CBC03C97D807F8E020E1081
:060B60008B1D8A1E891F97
:100B6600C2AFE4FCEC25E0FFC374859FFF120B982F
:100B7600EFC4540F75F00AA4FEEF540F2EAB1DAA56
:100B86001EA91F8C8275830012044C0CBC03D5D29F
:010B9600AFAF
:010B9700223B
:040D6B00D2A07F0A89
:100D6F00000000000000000000000000000000AEC6
:060D7F00071FEE70EB22DD
:0F0E3700D2A1120D6BC2A17F0A120D6FC2A022B1
:0C0E4600C2A1120D6BD2A17F0A020D6F39
:020BCC00AD0773
:100BCE00E4FCC2A07F0A120D6FED30E704D2A180C3
:100BDE0002C2A17F0A120D6FD2A0ED25E0FD7F0AA1
:090BEE00120D6F0CBC08DBC2A063
:010BF70022DB
:100D4E00E4FC120D6BED25E0FD30A103430501C25D
:0C0D5E00A07F0A120D6F0CBC08E8AF0566
:010D6A002266
:100CEF00AB05120E377FA0120BCC120D01AF031202
:020CFF000BCC1C
:100D0100120D6BA2A1E433FDC2A07F0A120D6FAFD9
:010D110005DC
:010D120022BE
:10000300C2A0EF24FF92A17F0A120D6F120D6BC2E3
:08001300A0D2A17F0A020D6FCB
:020CCA00AB0776
:100CCC00120E377F90120CF6120E377F91120BCC4E
:100CDC00120D01120D4EAD077F01120003120E46CC
:020CEC00AF0552
:010CEE0022E3
:100DE600AB07120E377F90120BCC120D017F41120A
:050DF6000CF6020E46A0
:100A65008B3C8A3D893E120CEF120E377FA1120B8B
:100A7500CC120D01AF401540EF6024120D4EAB3C7A
:100A8500053EE53EAA3D7002053D14F9EF12043A14
:100A9500E5406004E4FF80027F0112000380D50277
:020AA5000E46FB
:100A1F008B418A428943120CEFAF451545EF601F9A
:100A2F00AB410543E543AA427002054214F9120394
:100A3F00F4FF120BCC120D017FC8120D6F80DA126A
:100A4F000E467FFF120D6F7FFF120D6F7FFF120D8E
:060A5F006F7FFF020D6F26
:040D85007F057E0068
:100D8900EF1FAA0670011E4A600BE4FDEDC3940C27
:050D990050EE0D80F793
:010D9E002232
:020D1300A9072E
:100D1500E4FBC294E9139294120D85D294E9C313AE
:0C0D2500F90BBB08ED7F057E00020D8974
:100D9F00E4FBC294ECC313FCD2943094034304805D
:090DAF00120D850BBB08EBAF042B
:010DB8002218
:100C7C00C203D2947F0C7E00120D89C2947F507EE9
:100C8C0000120D89D2947F0A7E00120D89A29492D3
:060C9C0003120D85A20306
:010CA200222F
:100AE900120C7C7FCC120D137F44120D137FC87E2C
:100AF90000120D89120C7C7FCC120D137FBE120DD2
:100B090013120D9FA907120D9FEFAD01FCE412030B
:0B0B19003AE4FBFA7980783D120116E7
:010B240022AE
:100CA3007580FFE5A0541FFF4307808FA0E5A05484
:100CB3001FF5A0E4F580E5A0541FFF4307A08FA014
:060CC300E5A0541FF5A09E
:010CC9002208
:10084A00E4FF538EFEC2C4D2C2D2B5D2B420B002E3
:10085A007F0720B1027F0620B2027F0520B3027F04
:10086A0004D2C4C2C2D2B5D2B420B0027F0B20B126
:10087A00027F0A20B2027F0920B3027F08D2C4D2C3
:10088A00C2C2B5D2B420B0027F0F20B1027F0E20BF
:10089A00B2027F0D20B3027F0CD2C4D2C2D2B5C23B
:1008AA00B420B0027F1320B1027F1220B2027F115E
:0808BA0020B3027F10438E0100
:0108C2002213
:0C09AA000174000172FF0175000173FF71
:10074700E47874F690000112040D25E0FF1203F41B
:100757004FFF90000212040D25E025E04FFF9000A7
:100767000312040D33333354F84FFF90000412047F
:100777000DC454F04FFF90000512040DC43354E02C
:100787004FFF90000612040DC4333354C04FFF903F
:10079700000712040DC433333354804FFF7874F6C7
:1007A7007872E66F601B7874E6FFF4F580E5A05475
:1007B7001FFE4306808EA0E5A0541FF5A07872A601
:0107C700072A
:0107C800220E
:100DB9007580FFE5A0541FFF4307808FA0E5A0546D
:070DC9001FF5A0E47872F6AB
:010DD0002200
:100BF8007875E63000055440F6800344BFF67875F2
:100C0800E6FF78736660148F80E5A0541FFE4306E4
:0B0C1800A08EA0E5A0541FF5A0A607C9
:010C230022AE
:100C24007875E63001055410F6800344EFF67875C4
:100C3400E6FF78736660148F80E5A0541FFE4306B8
:0B0C4400A08EA0E5A0541FF5A0A6079D
:010C4F002282
:100C50007875E63002055420F6800344DFF6787597
:100C6000E6FF78736660148F80E5A0541FFE43068C
:0B0C7000A08EA0E5A0541FF5A0A60771
:010C7B002256
:1009B6001321C0F9A4B0999282F880908883C6A1C9
:0F09C600868E40FF8C0834010204081020408008
:1009D6007580FFE5A0541FFE4306E08EA0E5A054F7
:1009E6001FF5A074342FF8E6F580E5A0541FFE43EA
:1009F60006C08EA0E5A0541FF5A074212DF8E6F5DB
:100A060080EB4A600353807FE5A0541FFE4306E057
:080A16008EA0E5A0541FF5A01D
:010A1E0022B5
:060E520000007F21DFFE1D
:010E58002277
:100DFB00C2AFE4FED290120E52C290120E520EBE31
:040E0B0008F2D2AF68
:010E0F0022C0
:100AA700E4F5D9F5E9F5F9120DFBD2DE20DF047F75
:100AB7000180027F003091047E0180027E00EE5F9C
:100AC70070EAC2DE20DF16E5E9FFFCE412033F7B94
:100AD700967A43798B783C120116020373C2DF7F43
:010AE700000E
:010AE80022EB
:10001E000203DFE86480F8E933E83360110460F02E
:10002E00ED33EC337009E8FCE9FDEAFEEBFF220448
:10003E0060DED3EB9FEA9EE99DE8C2E78CF0C2F743
:10004E0095F0400CE8CCF8E9CDF9EACEFAEBCFFB0F
:10005E001203AA85D0F05804700320D5B3E80470BB
:10006E00075002B2D50203E992D5EC0460F7E4CC56
:10007E00C0E0C398F8603B94186008400DD0E0FBD8
:10008E000203C1E4FBFAC9FC8028E830E406E4C9A7
:10009E00FBE4CAFCE830E305E4C9CACBFCE854072C
:1000AE006010F8C3E913F9EA13FAEB13FBEC13FC37
:1000BE00D8F130F52FC3E49CFCEF9BFFEE9AFEEDDA
:1000CE0099FDD0E0FBEF4E4D4C701222DB03020384
:1000DE00E6EC2CFCEF33FFEE33FEED33FDED30E7B7
:1000EE00EB0203C1EF2BFFEE3AFEED39FDD0E0FB44
:1000FE0050130BBB00030203E9ED13FDEE13FEEFED
:08010E0013FFEC13FC0203C116
:10011600EC4D6011E8497017ED33EC3304600DE4E3
:10012600FCFFFEFD22E933E8330470F80203DF1218
:1001360003AA58046009E4CC248150062850090219
:1001460003E92840030203E6C0E0EB4A7044B980A5
:1001560006D0E0FB0203D5EF4E701CBD8008EBFF16
:10016600EAFEE9FD80EBE98DF0A4FEE5F00201FF71
:10017600E9CDF9EAFEEBFFEF89F0A4FCE5F0CE89C4
:10018600F0A42EFFE435F0CD89F0A42DFEE435F081
:100196008067EF4E7005BD80D780C3EF8BF0A4ACAF
:1001A600F0EE8BF0A42CFCE435F0F8EF8AF0A42CEA
:1001B600E5F038FCE433CB8DF0A42CFCE5F03BF8FD
:1001C600EE8AF0A42CFCE5F038F8E433CF89F0A4ED
:1001D6002CFCE5F038CF3400CE89F0A42FFFE5F0F3
:1001E6003EFEE433C98DF0A42EFEE5F039CD8AF04B
:1001F600A42FFFE5F03EFEE43DFD33D0E0FB5007C3
:100206000BBB000F0203E9EC2CFCEF33FFEE33FED1
:06021600ED33FD0203C1FF
:10021C000203E9EC5D046005E8590470030203DF96
:10022C001203AA580460F6EC4860F2EC7004FDFE70
:10023C00FF22C860DB2481C85009C39860025006B5
:10024C000203E69850CAF582E9294B4A7005AB8245
:10025C000203D575F0007C1A7880C3EF9BEE9AED03
:10026C0099400DC3EF9BFFEE9AFEED99FDE842F02D
:10027C00DC23ACF0D0E0FFD0E0FED0E0FDAB822080
:10028C00E7101BEB60BAEC2CFCEF33FFEE33FEED0A
:10029C0033FD0203C1E803F830E705C0F075F00048
:1002AC00EF2FFFEE33FEED33FD40B830E7C280AAEE
:1002BC0074F8CC6480CCC86480C8F58204604FC3E9
:1002CC00EB9FF5F0EA9E42F0E99D42F0E89C45F088
:1002DC00603C501DE5825FFFE582D313CB5BCBF412
:1002EC002B5582FB50280ABA002409B9002008803B
:1002FC001DE5825BFBE582D313CF5FCFF4C3132FD5
:10030C005582FF50090EBE00050DBD00010CC3EB5C
:10031C009FF5F0EA9E42F0E99D42F0E89C45F060C2
:09032C0007CC4820E701B3EC22E4
:1003350075F020800E75F010800575F0087D007E43
:10034500007F003392D530D5031204C3EC3340103F
:10035500EF33FFEE33FEED33FDEC33FCD5F0ED224C
:0E036500E5F0247EA2D513CC92E7CDCEFF2288
:10037300EDD2E7CD33EC3392D524814006E4FFFE82
:10038300FDFC22FCE4CFCECDCC24E0501174FF80E1
:10039300EDC3CC13CCCD13CDCE13CECF13CF04707E
:0703A300F030D5DE0204C3B7
:1003AA00E9D2E7C933E833F892D5EDD2E7CD33EC99
:0703BA0033FC5002B2D52212
:1003C100EC30E7100FBF000C0EBE00080DBD00049D
:1003D1000BEB6014A2D5EB13FCED92E7FD2274FF49
:1003E100FCFDFEFF22E480F8A2D574FF13FC7D80A2
:0303F100E480EFB6
:030000000206BB3A
:0C06BB00787FE4F6D8FD75817502070217
:1003F400BB010689828A83E0225002E722BBFE0207
:09040400E32289828A83E4932239
:10040D00BB010CE58229F582E5833AF583E02250A4
:10041D0006E92582F8E622BBFE06E92582F8E222EE
:0D042D00E58229F582E5833AF583E4932208
:10043A00BB010689828A83F0225002F722BBFE01A1
:02044A00F3229B
:10044C00F8BB010DE58229F582E5833AF583E8F0E6
:10045C00225006E92582C8F622BBFE05E92582C892
:02046C00F2227A
:10046E00BC000BBE0029EF8DF084FFADF022E4CC72
:10047E00F875F008EF2FFFEE33FEEC33FCEE9DEC3B
:10048E00984005FCEE9DFE0FD5F0E9E4CEFD22ED81
:10049E00F8F5F0EE8420D21CFEADF075F008EF2FCB
:1004AE00FFED33FD4007985006D5F0F222C398FDBC
:0504BE000FD5F0EA2259
:0E04C300C3E49FFFE49EFEE49DFDE49CFC224A
:1006C700020D31E493A3F8E493A34003F68001F20B
:1006D70008DFF48029E493A3F85407240CC8C33334
:1006E700C4540F4420C8834004F456800146F6DF03
:1006F700E4800B0102040810204080900988E47E02
:10070700019360BCA3FF543F30E509541FFEE493F7
:10071700A360010ECF54C025E060A840B8E493A3BE
:10072700FAE493A3F8E493A3C8C582C8CAC583CAE9
:10073700F0A3C8C582C8CAC583CADFE9DEE780BEA1
:0109D5000021
:00000001FF
