:02018B0080FEF4
:10013F00E4FEC297EF1392A3EFC313FFD2970EBE45
:02014F0008F0B6
:01015100228B
:10012B00C29300C29700D2930012013FAF05120198
:04013B003FC293220A
:10000300E4FDC29300C29700D2930012013FE4FFC4
:10001300C297EDC313FD30A303430580D2970FBFEF
:1000230008EEC29300C29700D29700C2A300D2A3E6
:0300330000AF0516
:0100360022A7
:0400C500D2A07F0A3C
:1000C900000000000000000000000000000000AE79
:0600D900071FEE70EB2290
:0F016400D2A11200C5C2A17F0A1200C9C2A022F7
:0C017300C2A11200C5D2A17F0A0200C97F
:02003700AD0713
:10003900E4FCC2A07F0A1200C9ED30E704D2A18016
:1000490002C2A17F0A1200C9D2A0ED25E0FD7F0AF4
:090059001200C90CBC08DBC2A0B6
:01006200227B
:1000A800E4FC1200C5ED25E0FD30A103430501C2C3
:0C00B800A07F0A1200C90CBC08E8AF05CC
:0100C4002219
:100152001200C5A2A1E433FDC2A07F0A1200C9AFFA
:010162000597
:010163002279
:10011300C2A0EF24FF92A17F0A1200C91200C5C238
:08012300A0D2A17F0A0200C96D
:0400DF007F057E001B
:1000E300EF1FAA0670011E4A600BE4FDEDC3940CDA
:0500F30050EE0D80F746
:0100F80022E5
:02008A00A907C4
:10008C00E4FBC294E91392941200DFD294E9C313F7
:0C009C00F90BBB08ED7F057E000200E3BD
:1000F900E4FBC294ECC313FCD29430940343048010
:090109001200DF0BBB08EBAF0490
:0101120022CA
:10006300C200D2947F0C7E001200E3C2947F507EC4
:10007300001200E3D2947F0A7E001200E3A294925E
:06008300001200DFA200E4
:010089002254
:0300000002017F7B
:0C017F00787FE4F6D8FD75812002018B2A
:00000001FF
