:10082E00083A1111111111111111082400000000C4
:10083E0000000000084C0000000000000000032132
:03084E000B0C0D83
:0B0A2A00EF1FAC0670011E4C70F6229E
:1009FF00EFC43354E0FFE5A0541F4FF5A08D8022C4
:1008B400200019D2001204DB8F48E5456548FF5536
:0D08C40048F544E548F45FF54A85484522B3
:01001E0022BF
:060A4400200202D2022292
:1007E300E54B6021C3E547940AE54694004016C2F1
:1007F30001E4F546F547AF4BFEFDFB7A00792E1277
:060803000368E4F54B223E
:1009C800538E7F5389F0438905E4F58AF58CC28DEF
:0309D800D28C229C
:10098A00538EBF53890F758B18758DFCC28FD28E0B
:05099A00D2ABD2AF2238
:03001B0002039449
:10039400C0E0C0F0C083C082C0D075D000C000C02F
:1003A40001C002C003C004C005C006C0070543E580
:1003B4004370020542FFAE42BE010BBF9008754276
:1003C40000754300C202AE42AF437C007D0A1203B3
:1003D40005ED4C7002C2003001080547E547700284
:1003E40005460539E53970020538FFAE38BE0319F4
:1003F400BFE816753800753900AF8CEFAD8AF52C5F
:10040400EDF52D758C00758A00E5435407FBFF2438
:100414003AF8E6FD7C0074242BF8E6FB7A0012051A
:10042400DDE5435407FF244CF8E6FD7C0012061E6C
:10043400D007D006D005D004D003D002D001D0001C
:0B044400D0D0D082D083D0F0D0E032C6
:0300230002076071
:10076000C0E0C0D075D000C000309813D2017546EB
:1007700000754700742E254BF8A699054BC298E5E5
:100780004BD3940A4003754B00D000D0D0D0E03258
:100876001208EE12098A7B007A00792112054E12BF
:1008860009731208B4120A4412001E1207E380F21A
:1009DB00E4FEC297EF1392A3EFC313FFD2970EBEA1
:0209EB0008F012
:0109ED0022E7
:1009B400C29300C29700D293001209DBAF0512095B
:0409C400DBC29322DD
:1006C600E4FDC29300C29700D293001209DBE4FF57
:1006D600C297EDC313FD30A303430580D2970FBF26
:1006E60008EEC29300C29700D29700C2A300D2A31D
:0306F60000AF054D
:0106F90022DE
:06054E008B158A168917C7
:10055400E4FD7F8E1209B4E4FCEC25E0FFC374844F
:100564009FFFAB15AA16A9178C827583001202A4EB
:10057400FE75F00A8475F00A84ADF0EDC454F0FD04
:10058400EE75F00A84E5F04DFD1209B40CBC03C904
:070594007D807F8E0209B497
:0606FA008B128A13891423
:10070000E4FCEC25E0FFC374859FFF1206C6EFC42E
:10071000540F75F00AA4FEEF540F2EAB12AA13A9C2
:0D072000148C827583001202E30CBC03D51B
:01072D0022A9
:04090B00D2A07F0AED
:10090F00000000000000000000000000000000AE2A
:06091F00071FEE70EB2241
:0F0A0F00D2A112090BC2A17F0A12090FC2A022A5
:0C0A1E00C2A112090BD2A17F0A02090F2D
:02079000AD07B3
:10079200E4FCC2A07F0A12090FED30E704D2A18067
:1007A20002C2A17F0A12090FD2A0ED25E0FD7F0A45
:0907B20012090F0CBC08DBC2A007
:0107BB00221B
:1008D100E4FC12090BED25E0FD30A103430501C243
:0C08E100A07F0A12090F0CBC08E8AF054C
:0108ED0022E8
:10085200AB05120A0F7FA0120790120864AF0312B1
:020862000790FD
:1008640012090BA2A1E433FDC2A07F0A12090FAF43
:01087400057E
:010875002260
:10000300C2A0EF24FF92A17F0A12090F12090BC2AB
:08001300A0D2A17F0A02090F2F
:02080900AB073B
:10080B00120A0F7F90120859120A0F7F911207904C
:10081B001208641208D1AD077F01120003120A1EE1
:02082B00AF0517
:01082D0022A8
:10099F00AB07120A0F7F901207901208647F411263
:0509AF000859020A1EB8
:10072E008B088A09890A120852AF0C150CEF601F4C
:10073E00AB08050AE50AAA097002050914F91202A6
:10074E008BFF1207901208647FC812090F80DA021D
:02075E000A1E71
:10059B008B0D8A0E890F120852120A0F7FA11207B8
:1005AB0090120864AF111511EF60241208D1AB0D36
:1005BB00050FE50FAA0E7002050E14F9EF1202D10A
:1005CB00E5116004E4FF80027F0112000380D50275
:0205DB000A1EF6
:040925007F057E00CC
:10092900EF1FAA0670011E4A600BE4FDEDC3940C8B
:0509390050EE0D80F7F7
:01093E002296
:02089600A907B0
:10089800E4FBC294E9139294120925D294E9C31394
:0C08A800F90BBB08ED7F057E000209295A
:10093F00E4FBC294ECC313FCD294309403430480C1
:09094F001209250BBB08EBAF04F3
:01095800227C
:1007BC00C203D2947F0C7E00120929C2947F507E12
:1007CC0000120929D2947F0A7E00120929A2949260
:0607DC0003120925A2032F
:0107E20022F4
:100691001207BC7FCC1208967F441208961207BC41
:1006A1007FCC1208967FBE12089612093FA9071245
:1006B100093FEFAD01FCE41201D1E4FBFA79807846
:0406C1004112012FB2
:0106C5002212
:1008EE007580FFE5A0541F4480F5A053A01FE4F5CA
:0D08FE0080E5A0541F44A0F5A053A01F22C8
:1004DB00E4FFC2C4D2C2D2B5D2B420B0027F07208F
:1004EB00B1027F0620B2027F0520B3027F04D2C483
:1004FB00C2C2D2B5D2B420B0027F0B20B1027F0AA8
:10050B0020B2027F0920B3027F08D2C4D2C2C2B587
:10051B00D2B420B0027F0F20B1027F0E20B2027F37
:10052B000D20B3027F0CD2C4D2C2D2B5C2B420B05C
:10053B00027F1320B1027F1220B2027F1120B3027F
:02054B007F101F
:01054D00228B
:10061E00ED4C600F7401A807088002C333D8FC426A
:10062E0018800E7401A807088002C333D8FCF45258
:10063E0018E51865196013E518F4F580E5A0541F48
:0A064E004480F5A053A01F85181981
:01065800227F
:10095900C0F9A4B0999282F880908883C6A1868E46
:0A09690040FF010204081020408046
:1005DD007580FFE5A0541F44E0F5A053A01FEF90D8
:1005ED00096B93F580E5A0541F44C0F5A053A01FDF
:1005FD0074592DF58274093CF583E493F580EB4A2B
:10060D00600353807FE5A0541F44E0F5A053A01F65
:01061D0022BA
:10097300759850438E01438E0475D7C775D6FE43D1
:070983008E10D2ACD2AF22AE
:080A35008F993099FDC299224E
:060A3D0000007F21DFFE36
:010A43002290
:1009EE00E4FED290120A3DC290120A3D0EBE08F2EB
:0109FE0022D6
:10065900E4F5D9F5E9F5F91209EED2DE3091033066
:10066900DFFAC2DE20DF1CAFF9EFFEADE9EDFFAC2A
:1006790006E41201D17B967A43798B783C120026E5
:0706890002020AC2DF7F003C
:010690002247
:10002600EC4D6011E8497017ED33EC3304600DE4D4
:10003600FCFFFEFD22E933E8330470F80202761273
:10004600024158046009E4CC248150062850090274
:10005600028028400302027DC0E0EB4A7044B9806A
:1000660006D0E0FB02026CEF4E701CBD8008EBFF71
:10007600EAFEE9FD80EBE98DF0A4FEE5F002010F52
:10008600E9CDF9EAFEEBFFEF89F0A4FCE5F0CE89B5
:10009600F0A42EFFE435F0CD89F0A42DFEE435F072
:1000A6008067EF4E7005BD80D780C3EF8BF0A4ACA0
:1000B600F0EE8BF0A42CFCE435F0F8EF8AF0A42CDB
:1000C600E5F038FCE433CB8DF0A42CFCE5F03BF8EE
:1000D600EE8AF0A42CFCE5F038F8E433CF89F0A4DE
:1000E6002CFCE5F038CF3400CE89F0A42FFFE5F0E4
:1000F6003EFEE433C98DF0A42EFEE5F039CD8AF03C
:10010600A42FFFE5F03EFEE43DFD33D0E0FB5007B3
:100116000BBB000F020280EC2CFCEF33FFEE33FE2C
:06012600ED33FD0202585A
:10012C00020280EC5D046005E8590470030202765B
:10013C00120241580460F6EC4860F2EC7004FDFECB
:10014C00FF22C860DB2481C85009C39860025006A6
:10015C0002027D9850CAF582E9294B4A7005AB82A0
:10016C0002026C75F0007C1A7880C3EF9BEE9AED5E
:10017C0099400DC3EF9BFFEE9AFEED99FDE842F01E
:10018C00DC23ACF0D0E0FFD0E0FED0E0FDAB822071
:10019C00E7101BEB60BAEC2CFCEF33FFEE33FEEDFB
:1001AC0033FD020258E803F830E705C0F075F000A3
:1001BC00EF2FFFEE33FEED33FD40B830E7C280AADF
:1001CC0075F020800E75F010800575F0087D007EAE
:1001DC00007F003392D530D50312035AEC33401014
:1001EC00EF33FFEE33FEED33FDEC33FCD5F0ED22B7
:0E01FC00E5F0247EA2D513CC92E7CDCEFF22F3
:10020A00EDD2E7CD33EC3392D524814006E4FFFEEC
:10021A00FDFC22FCE4CFCECDCC24E0501174FF804B
:10022A00EDC3CC13CCCD13CDCE13CECF13CF0470E8
:07023A00F030D5DE02035A8B
:10024100E9D2E7C933E833F892D5EDD2E7CD33EC03
:0702510033FC5002B2D5227C
:10025800EC30E7100FBF000C0EBE00080DBD000407
:100268000BEB6014A2D5EB13FCED92E7FD2274FFB3
:10027800FCFDFEFF22E480F8A2D574FF13FC7D800C
:03028800E480EF20
:0300000002044FA8
:0C044F00787FE4F6D8FD75815302049616
:10028B00BB010689828A83E0225002E722BBFE0271
:09029B00E32289828A83E49322A4
:1002A400BB010CE58229F582E5833AF583E022500F
:1002B40006E92582F8E622BBFE06E92582F8E22259
:0D02C400E58229F582E5833AF583E4932273
:1002D100BB010689828A83F0225002F722BBFE010C
:0202E100F32206
:1002E300F8BB010DE58229F582E5833AF583E8F051
:1002F300225006E92582C8F622BBFE05E92582C8FD
:02030300F222E4
:10030500BC000BBE0029EF8DF084FFADF022E4CCDC
:10031500F875F008EF2FFFEE33FEEC33FCEE9DECA5
:10032500984005FCEE9DFE0FD5F0E9E4CEFD22EDEB
:10033500F8F5F0EE8420D21CFEADF075F008EF2F35
:10034500FFED33FD4007985006D5F0F222C398FD26
:050355000FD5F0EA22C3
:0E035A00C3E49FFFE49EFEE49DFDE49CFC22B4
:10036800EF4E6012EF60010EEDBB010B89828A83AC
:10037800F0A3DFFCDEFA2289F05007F709DFFCA9B9
:0C038800F022BBFEFCF309DFFCA9F02210
:10045B00020876E493A3F8E493A34003F68001F239
:10046B0008DFF48029E493A3F85407240CC8C333A2
:10047B00C4540F4420C8834004F456800146F6DF71
:10048B00E4800B010204081020408090082EE47ECB
:10049B00019360BCA3FF543F30E509541FFEE49366
:1004AB00A360010ECF54C025E060A840B8E493A32D
:1004BB00FAE493A3F8E493A3C8C582C8CAC583CA58
:1004CB00F0A3C8C582C8CAC583CADFE9DEE780BE10
:0108510000A6
:00000001FF
